{
  "_format": "hh-sol-artifact-1",
  "contractName": "OblivionManager",
  "sourceName": "src/VouchManager.sol",
  "abi": [
    {
      "inputs": [
        {
          "internalType": "address",
          "name": "_verifier",
          "type": "address"
        }
      ],
      "stateMutability": "nonpayable",
      "type": "constructor"
    },
    {
      "anonymous": false,
      "inputs": [
        {
          "indexed": true,
          "internalType": "uint256",
          "name": "jobId",
          "type": "uint256"
        },
        {
          "indexed": true,
          "internalType": "address",
          "name": "requester",
          "type": "address"
        }
      ],
      "name": "JobCancelled",
      "type": "event"
    },
    {
      "anonymous": false,
      "inputs": [
        {
          "indexed": true,
          "internalType": "uint256",
          "name": "jobId",
          "type": "uint256"
        },
        {
          "indexed": true,
          "internalType": "address",
          "name": "provider",
          "type": "address"
        },
        {
          "indexed": false,
          "internalType": "bytes32",
          "name": "updateHash",
          "type": "bytes32"
        }
      ],
      "name": "JobCompleted",
      "type": "event"
    },
    {
      "anonymous": false,
      "inputs": [
        {
          "indexed": true,
          "internalType": "uint256",
          "name": "jobId",
          "type": "uint256"
        },
        {
          "indexed": false,
          "internalType": "enum OblivionManager.JobType",
          "name": "jobType",
          "type": "uint8"
        },
        {
          "indexed": false,
          "internalType": "uint256",
          "name": "reward",
          "type": "uint256"
        },
        {
          "indexed": true,
          "internalType": "address",
          "name": "requester",
          "type": "address"
        }
      ],
      "name": "JobCreated",
      "type": "event"
    },
    {
      "anonymous": false,
      "inputs": [
        {
          "indexed": true,
          "internalType": "uint256",
          "name": "jobId",
          "type": "uint256"
        },
        {
          "indexed": true,
          "internalType": "address",
          "name": "provider",
          "type": "address"
        }
      ],
      "name": "JobExpired",
      "type": "event"
    },
    {
      "anonymous": false,
      "inputs": [
        {
          "indexed": true,
          "internalType": "uint256",
          "name": "jobId",
          "type": "uint256"
        },
        {
          "indexed": true,
          "internalType": "address",
          "name": "provider",
          "type": "address"
        }
      ],
      "name": "JobProcessing",
      "type": "event"
    },
    {
      "anonymous": false,
      "inputs": [
        {
          "indexed": true,
          "internalType": "address",
          "name": "worker",
          "type": "address"
        },
        {
          "indexed": false,
          "internalType": "uint256",
          "name": "amount",
          "type": "uint256"
        }
      ],
      "name": "StakeDeposited",
      "type": "event"
    },
    {
      "anonymous": false,
      "inputs": [
        {
          "indexed": true,
          "internalType": "address",
          "name": "worker",
          "type": "address"
        },
        {
          "indexed": false,
          "internalType": "uint256",
          "name": "amount",
          "type": "uint256"
        }
      ],
      "name": "StakeWithdrawn",
      "type": "event"
    },
    {
      "anonymous": false,
      "inputs": [
        {
          "indexed": true,
          "internalType": "address",
          "name": "worker",
          "type": "address"
        },
        {
          "indexed": false,
          "internalType": "uint256",
          "name": "amount",
          "type": "uint256"
        },
        {
          "indexed": true,
          "internalType": "uint256",
          "name": "jobId",
          "type": "uint256"
        }
      ],
      "name": "WorkerSlashed",
      "type": "event"
    },
    {
      "inputs": [],
      "name": "INFERENCE_TIMEOUT",
      "outputs": [
        {
          "internalType": "uint256",
          "name": "",
          "type": "uint256"
        }
      ],
      "stateMutability": "view",
      "type": "function"
    },
    {
      "inputs": [],
      "name": "TRAINING_TIMEOUT",
      "outputs": [
        {
          "internalType": "uint256",
          "name": "",
          "type": "uint256"
        }
      ],
      "stateMutability": "view",
      "type": "function"
    },
    {
      "inputs": [
        {
          "internalType": "uint256",
          "name": "_jobId",
          "type": "uint256"
        }
      ],
      "name": "cancelJob",
      "outputs": [],
      "stateMutability": "nonpayable",
      "type": "function"
    },
    {
      "inputs": [
        {
          "internalType": "uint256",
          "name": "_jobId",
          "type": "uint256"
        }
      ],
      "name": "claimJob",
      "outputs": [],
      "stateMutability": "nonpayable",
      "type": "function"
    },
    {
      "inputs": [
        {
          "internalType": "enum OblivionManager.JobType",
          "name": "_type",
          "type": "uint8"
        },
        {
          "internalType": "string",
          "name": "_modelHash",
          "type": "string"
        },
        {
          "internalType": "string",
          "name": "_dataHash",
          "type": "string"
        }
      ],
      "name": "createJob",
      "outputs": [],
      "stateMutability": "payable",
      "type": "function"
    },
    {
      "inputs": [],
      "name": "depositStake",
      "outputs": [],
      "stateMutability": "payable",
      "type": "function"
    },
    {
      "inputs": [
        {
          "internalType": "uint256",
          "name": "_jobId",
          "type": "uint256"
        }
      ],
      "name": "expireJob",
      "outputs": [],
      "stateMutability": "nonpayable",
      "type": "function"
    },
    {
      "inputs": [
        {
          "internalType": "uint256",
          "name": "_jobId",
          "type": "uint256"
        }
      ],
      "name": "getJob",
      "outputs": [
        {
          "components": [
            {
              "internalType": "address",
              "name": "requester",
              "type": "address"
            },
            {
              "internalType": "uint256",
              "name": "reward",
              "type": "uint256"
            },
            {
              "internalType": "enum OblivionManager.JobType",
              "name": "jobType",
              "type": "uint8"
            },
            {
              "internalType": "enum OblivionManager.JobStatus",
              "name": "status",
              "type": "uint8"
            },
            {
              "internalType": "string",
              "name": "modelHash",
              "type": "string"
            },
            {
              "internalType": "string",
              "name": "dataHash",
              "type": "string"
            },
            {
              "internalType": "address",
              "name": "provider",
              "type": "address"
            },
            {
              "internalType": "uint256",
              "name": "stake",
              "type": "uint256"
            },
            {
              "internalType": "uint256",
              "name": "createdAt",
              "type": "uint256"
            },
            {
              "internalType": "uint256",
              "name": "claimedAt",
              "type": "uint256"
            }
          ],
          "internalType": "struct OblivionManager.Job",
          "name": "",
          "type": "tuple"
        }
      ],
      "stateMutability": "view",
      "type": "function"
    },
    {
      "inputs": [],
      "name": "getJobCount",
      "outputs": [
        {
          "internalType": "uint256",
          "name": "",
          "type": "uint256"
        }
      ],
      "stateMutability": "view",
      "type": "function"
    },
    {
      "inputs": [
        {
          "internalType": "enum OblivionManager.JobType",
          "name": "_type",
          "type": "uint8"
        }
      ],
      "name": "getTimeout",
      "outputs": [
        {
          "internalType": "uint256",
          "name": "",
          "type": "uint256"
        }
      ],
      "stateMutability": "pure",
      "type": "function"
    },
    {
      "inputs": [
        {
          "internalType": "uint256",
          "name": "_jobId",
          "type": "uint256"
        }
      ],
      "name": "isJobExpired",
      "outputs": [
        {
          "internalType": "bool",
          "name": "",
          "type": "bool"
        }
      ],
      "stateMutability": "view",
      "type": "function"
    },
    {
      "inputs": [
        {
          "internalType": "uint256",
          "name": "",
          "type": "uint256"
        }
      ],
      "name": "jobs",
      "outputs": [
        {
          "internalType": "address",
          "name": "requester",
          "type": "address"
        },
        {
          "internalType": "uint256",
          "name": "reward",
          "type": "uint256"
        },
        {
          "internalType": "enum OblivionManager.JobType",
          "name": "jobType",
          "type": "uint8"
        },
        {
          "internalType": "enum OblivionManager.JobStatus",
          "name": "status",
          "type": "uint8"
        },
        {
          "internalType": "string",
          "name": "modelHash",
          "type": "string"
        },
        {
          "internalType": "string",
          "name": "dataHash",
          "type": "string"
        },
        {
          "internalType": "address",
          "name": "provider",
          "type": "address"
        },
        {
          "internalType": "uint256",
          "name": "stake",
          "type": "uint256"
        },
        {
          "internalType": "uint256",
          "name": "createdAt",
          "type": "uint256"
        },
        {
          "internalType": "uint256",
          "name": "claimedAt",
          "type": "uint256"
        }
      ],
      "stateMutability": "view",
      "type": "function"
    },
    {
      "inputs": [],
      "name": "owner",
      "outputs": [
        {
          "internalType": "address",
          "name": "",
          "type": "address"
        }
      ],
      "stateMutability": "view",
      "type": "function"
    },
    {
      "inputs": [
        {
          "internalType": "uint256",
          "name": "_jobId",
          "type": "uint256"
        }
      ],
      "name": "slashWorker",
      "outputs": [],
      "stateMutability": "nonpayable",
      "type": "function"
    },
    {
      "inputs": [
        {
          "internalType": "uint256",
          "name": "_jobId",
          "type": "uint256"
        },
        {
          "internalType": "bytes32",
          "name": "_updateHash",
          "type": "bytes32"
        },
        {
          "internalType": "uint256[]",
          "name": "_pubInputs",
          "type": "uint256[]"
        },
        {
          "internalType": "bytes",
          "name": "_proof",
          "type": "bytes"
        }
      ],
      "name": "submitResult",
      "outputs": [],
      "stateMutability": "nonpayable",
      "type": "function"
    },
    {
      "inputs": [
        {
          "internalType": "uint256",
          "name": "_jobId",
          "type": "uint256"
        },
        {
          "internalType": "bytes32",
          "name": "_updateHash",
          "type": "bytes32"
        },
        {
          "internalType": "uint256[]",
          "name": "_pubInputs",
          "type": "uint256[]"
        },
        {
          "internalType": "bytes",
          "name": "_proof",
          "type": "bytes"
        }
      ],
      "name": "submitTrainingUpdate",
      "outputs": [],
      "stateMutability": "nonpayable",
      "type": "function"
    },
    {
      "inputs": [
        {
          "internalType": "address",
          "name": "_newOwner",
          "type": "address"
        }
      ],
      "name": "transferOwnership",
      "outputs": [],
      "stateMutability": "nonpayable",
      "type": "function"
    },
    {
      "inputs": [
        {
          "internalType": "address",
          "name": "_newVerifier",
          "type": "address"
        }
      ],
      "name": "updateVerifier",
      "outputs": [],
      "stateMutability": "nonpayable",
      "type": "function"
    },
    {
      "inputs": [],
      "name": "verifier",
      "outputs": [
        {
          "internalType": "contract IVerifier",
          "name": "",
          "type": "address"
        }
      ],
      "stateMutability": "view",
      "type": "function"
    },
    {
      "inputs": [
        {
          "internalType": "uint256",
          "name": "amount",
          "type": "uint256"
        }
      ],
      "name": "withdrawStake",
      "outputs": [],
      "stateMutability": "nonpayable",
      "type": "function"
    },
    {
      "inputs": [
        {
          "internalType": "address",
          "name": "",
          "type": "address"
        }
      ],
      "name": "workerReputation",
      "outputs": [
        {
          "internalType": "uint256",
          "name": "",
          "type": "uint256"
        }
      ],
      "stateMutability": "view",
      "type": "function"
    },
    {
      "inputs": [
        {
          "internalType": "address",
          "name": "",
          "type": "address"
        }
      ],
      "name": "workerStakes",
      "outputs": [
        {
          "internalType": "uint256",
          "name": "",
          "type": "uint256"
        }
      ],
      "stateMutability": "view",
      "type": "function"
    },
    {
      "stateMutability": "payable",
      "type": "receive"
    }
  ],
  "bytecode": "0x6080346100ce57601f611d3738819003918201601f19168301916001600160401b038311848410176100d3578084926020946040528339810103126100ce57516001600160a01b038116908190036100ce57801561008957600080546001600160a01b031990811690921790556001805490911633178155600255604051611c4d90816100ea8239f35b60405162461bcd60e51b815260206004820152601860248201527f496e76616c6964207665726966696572206164647265737300000000000000006044820152606490fd5b600080fd5b634e487b7160e01b600052604160045260246000fdfe608080604052600436101561001d575b50361561001b57600080fd5b005b600090813560e01c90816308a101b814611711575080630d2d76a21461165b57806316aad824146115c1578063180aedf3146114db5780631dffa3dc146113b357806325d5971f146112535780632792cf03146112215780632b7ac3f3146111fa5780634e2b39ca146111dd57806359abb656146111bf5780638da5cb5b1461119657806397fc007c14611102578063b02b4a2f146110e4578063b3212e69146110a7578063bade066b14610dbb578063bc76136c14610c4e578063bf22c45714610a76578063d7df14781461093b578063dad788d9146108fc578063e3e4b9fb14610711578063ec3cb224146101aa5763f2fde38b0361000f57346101a75760203660031901126101a7576004356001600160a01b03818116918290036101a35761014f6001549182163314611b83565b8115610166576001600160a01b0319161760015580f35b60405162461bcd60e51b8152602060048201526015602482015274496e76616c6964206f776e6572206164647265737360581b6044820152606490fd5b8280fd5b80fd5b5060603660031901126101a757600260043510156101a75760243567ffffffffffffffff811161070d576101e29036906004016119d5565b9060443567ffffffffffffffff811161070d576102039036906004016119d5565b610211600280541415611a1c565b6002805534156106d65782511561069b57805115610661576040519261023684611864565b33845234602085015261024e60043560408601611ab9565b826060850152608084015260a08301528060c08301528060e083015242610100830152806101208301526003546801000000000000000081101561064d5780600161029c92016003556117d9565b61063957825181546001600160a01b0319166001600160a01b039190911617815560208301516001820155604083015160028083019190811015610625578154606086015160068110156106115761ff0060ff9160081b1692169061ffff191617179055608083015192835167ffffffffffffffff81116105fd57610324600384015461182a565b601f81116105b9575b506020601f821160011461054d5784958293949592610542575b50508160011b916000199060031b1c19161760038301555b60a081015180519067ffffffffffffffff821161052e57610383600485015461182a565b601f81116104ea575b50602090601f83116001146104775791806008949261012094889261046c575b50508160011b916000199060031b1c19161760048501555b60c08101516005850180546001600160a01b0319166001600160a01b039290921691909117905560e0810151600685015561010081015160078501550151910155600354600019810190811161045857604051906104248260043561195f565b3460208301527fb4421dcedf6429dc519ceeb2ca0730a119b29407bf0f574238cf66d08f47ad2a60403393a3600160025580f35b634e487b7160e01b82526011600452602482fd5b0151905038806103ac565b906004850186526020862091865b601f19851681106104d2575092600894926001926101209583601f198116106104b9575b505050811b0160048501556103c4565b015160001960f88460031b161c191690553880806104a9565b91926020600181928685015181550194019201610485565b60048501865260208620601f840160051c810160208510610527575b601f830160051c8201811061051c57505061038c565b878155600101610506565b5080610506565b634e487b7160e01b85526041600452602485fd5b015190503880610347565b6003840185526020852090855b601f19841681106105a1575060019394959683601f19811610610588575b505050811b01600383015561035f565b015160001960f88460031b161c19169055388080610578565b9091602060018192858b01518155019301910161055a565b60038401855260208520601f830160051c8101602084106105f6575b601f830160051c820181106105eb57505061032d565b8681556001016105d5565b50806105d5565b634e487b7160e01b84526041600452602484fd5b634e487b7160e01b86526021600452602486fd5b634e487b7160e01b84526021600452602484fd5b634e487b7160e01b82526004829052602482fd5b634e487b7160e01b82526041600452602482fd5b60405162461bcd60e51b815260206004820152601260248201527111185d18481a185cda081c995c5d5a5c995960721b6044820152606490fd5b60405162461bcd60e51b8152602060048201526013602482015272135bd9195b081a185cda081c995c5d5a5c9959606a1b6044820152606490fd5b60405162461bcd60e51b815260206004820152600f60248201526e14995dd85c99081c995c5d5a5c9959608a1b6044820152606490fd5b5080fd5b50346101a757602090816003193601126101a7576004356002906107388280541415611a1c565b8180556107486003548210611ac5565b610751816117d9565b508281019081549160ff8360081c1660068110156108e8576108b15781546001600160a01b0316331461086c57600182015460011c9233875260048852836040882054106108135791600196979161010060049460058401336bffffffffffffffffffffffff60a01b82541617905561ff001916179055836006820155600842910155338752526107e760408620918254611a7c565b905533907f9db473c30c252a39ef7ece5cfac60ee27263af44a5d50eb607bc4522d02069c48580a35580f35b60405162461bcd60e51b815260048101899052602b60248201527f496e73756666696369656e74207374616b652028353025206f6620726577617260448201526a642072657175697265642960a81b6064820152608490fd5b60405162461bcd60e51b815260048101889052601e60248201527f5265717565737465722063616e6e6f7420636c61696d206f776e206a6f6200006044820152606490fd5b60405162461bcd60e51b815260048101889052600f60248201526e4a6f62206e6f742070656e64696e6760881b6044820152606490fd5b634e487b7160e01b87526021600452602487fd5b50346101a75760203660031901126101a757602061093161092b6004356109266003548210611ac5565b6117d9565b50611bd5565b6040519015158152f35b50346101a75760203660031901126101a7576001546001600160a01b03906004359061096a9083163314611b83565b60029061097a8280541415611a1c565b81805561098a6003548210611ac5565b610993816117d9565b50928284019081549460ff8660081c166006811015610a6257600103610a1d57600195610a128880808086887f35bade04563d8d0b18e6cdc95a7a0eb5b8d9999ac05e48fbef04a65b6cd5ca1399600560209a0154169a61040060068401549961ff0019161790558d8201549154165af1610a0c611a89565b50611b02565b604051908152a35580f35b60405162461bcd60e51b815260206004820152601e60248201527f43616e206f6e6c7920736c6173682070726f63657373696e67206a6f627300006044820152606490fd5b634e487b7160e01b88526021600452602488fd5b50346101a75760203660031901126101a757610ae49060043590610120604051610a9f81611864565b82815282602082015282604082015282606082015260606080820152606060a08201528260c08201528260e08201528261010082015201526109266003548210611ac5565b5060405190610af282611864565b80546001600160a01b0316825260018101546020830152600281015460ff90610b2081831660408601611ab9565b60081c16906006821015610c38576008916060840152610b42600382016118b9565b6080840152610b53600482016118b9565b60a084015260018060a01b0360058201541660c0840152600681015460e08401526007810154610100840152015461012082015260405180916020825260018060a01b03815116602083015260208101516040830152610bbb6040820151606084019061195f565b610bcd6060820151608084019061196c565b6080810151610120610c06610bf0610140938460a0880152610160870190611979565b60a0850151868203601f190160c0880152611979565b9260018060a01b0360c08201511660e086015260e0810151610100860152610100810151828601520151908301520390f35b634e487b7160e01b600052602160045260246000fd5b50346101a75760203660031901126101a7576004356002610c728180541415611a1c565b808055610c826003548310611ac5565b610c8b826117d9565b5091818301805460ff8160081c1660068110156108e857600103610d8157610cb285611bd5565b15610d465760207f35bade04563d8d0b18e6cdc95a7a0eb5b8d9999ac05e48fbef04a65b6cd5ca1391610d158880808060019b8c8060a01b03806005830154169a61050060068401549961ff0019161790558d8201549154165af1610a0c611a89565b6040519084867f2ff4b096ccebd1944c1681b8f847b6588aa34a90308ec467bb927e10c01921518b80a38152a35580f35b60405162461bcd60e51b8152602060048201526013602482015272129bd8881b9bdd081e595d08195e1c1a5c9959606a1b6044820152606490fd5b60405162461bcd60e51b81526020600482015260126024820152714a6f62206e6f742070726f63657373696e6760701b6044820152606490fd5b50346101a757610dca3661174b565b939290959491600294610de08680541415611a1c565b858055610df06003548510611ac5565b610df9846117d9565b50600581015490936001600160a01b039290918316330361106a578785019384549360ff8560081c1660068110156110565760010361101d57610e3b87611bd5565b610fe6578a54166040518080958194630bd205a960e41b835260048301604090526044830190610e6a92611b3e565b81810360031901602483015260209e8f96610e859291611b62565b03915afa908115610fdb578891610fa1575b5015610f695761ff0019166102001790556001810154600690910154610ebc91611a59565b338552600586526040852080549060018201809211610f55578680938193829355335af1610ee8611a89565b5015610f20577f0fd54bd364fa9e67f17b091aefe930932c09fe7651cf5ad02c71a418f3341444600194956040519384523393a35580f35b60405162461bcd60e51b815260048101869052600d60248201526c14185e5bdd5d0819985a5b1959609a1b6044820152606490fd5b634e487b7160e01b87526011600452602487fd5b60405162461bcd60e51b815260048101899052601060248201526f24b73b30b634b2102d2590383937b7b360811b6044820152606490fd5b90508881813d8311610fd4575b610fb88183611897565b81010312610fd057518015158103610fd05738610e97565b8780fd5b503d610fae565b6040513d8a823e3d90fd5b60405162461bcd60e51b815260206004820152600f60248201526e129bd8881a185cc8195e1c1a5c9959608a1b6044820152606490fd5b60405162461bcd60e51b81526020600482015260116024820152704e6f7420696e2070726f63657373696e6760781b6044820152606490fd5b634e487b7160e01b8c52602160045260248cfd5b60405162461bcd60e51b81526020600482015260156024820152742737ba1030b9b9b4b3b732b210383937bb34b232b960591b6044820152606490fd5b50346101a75760203660031901126101a7576004356001600160a01b0381169081900361070d578160409160209352600483522054604051908152f35b50346101a757806003193601126101a7576020600354604051908152f35b50346101a75760203660031901126101a7576004356001600160a01b03818116918290036101a35761113990600154163314611b83565b80156111515781546001600160a01b03191617815580f35b60405162461bcd60e51b815260206004820152601860248201527f496e76616c6964207665726966696572206164647265737300000000000000006044820152606490fd5b50346101a757806003193601126101a7576001546040516001600160a01b039091168152602090f35b50346101a757806003193601126101a7576020604051620151808152f35b50346101a757806003193601126101a7576020604051610e108152f35b50346101a757806003193601126101a757546040516001600160a01b039091168152602090f35b50346101a75760203660031901126101a7576004359060028210156101a757602061124b83611bbb565b604051908152f35b50346101a75760208060031936011261070d5760043590611278600280541415611a1c565b60028055811561136f57338352600481528160408420541061132b5733835260048152604083206112aa838254611a7c565b90558280808085335af16112bc611a89565b50156112f5577f8108595eb6bad3acefa9da467d90cc2217686d5c5ac85460f8b7849c840645fc906040519283523392a2600160025580f35b6064906040519062461bcd60e51b82526004820152600f60248201526e151c985b9cd9995c8819985a5b1959608a1b6044820152fd5b6064906040519062461bcd60e51b82526004820152601a60248201527f496e73756666696369656e74207374616b652062616c616e63650000000000006044820152fd5b6064906040519062461bcd60e51b82526004820152601d60248201527f4d757374207769746864726177206e6f6e2d7a65726f20616d6f756e740000006044820152fd5b50346101a75760203660031901126101a75760043560026113d78180541415611a1c565b8080556113e76003548310611ac5565b6113f0826117d9565b5080549092906001600160a01b031633036114a6578183019283549360ff8560081c1660068110156108e85761146f578580806001611445958295610300839b61ff0019161790550154335af1610a0c611a89565b33907ff1ab0865975dad5c69ae8e4baaf13114c875728afa7cc86368534c22a631d0b08580a35580f35b60405162461bcd60e51b815260206004820152600f60248201526e4e6f742063616e63656c6c61626c6560881b6044820152606490fd5b60405162461bcd60e51b815260206004820152600d60248201526c2737ba103932b8bab2b9ba32b960991b6044820152606490fd5b50346101a75760203660031901126101a75760043560035481101561070d57611503906117d9565b5080546001820154600283015490926001600160a01b0392831692919061152c600382016118b9565b6115a661153b600484016118b9565b946005840154169461159860068501549361158760086007880154970154976040519b8c9b8c5260208c015261157760408c0160ff831661195f565b60ff60608c019160081c1661196c565b6101408060808b0152890190611979565b9087820360a0890152611979565b9360c086015260e08501526101008401526101208301520390f35b50346101a757806115d13661174b565b9594929195303b156116575761161161162393604051988997889763bade066b60e01b895260048901526024880152608060448801526084870191611b3e565b84810360031901606486015291611b62565b038183305af1801561164c57611637575080f35b67ffffffffffffffff811161064d5760405280f35b6040513d84823e3d90fd5b8580fd5b50806003193601126101a757611675600280541415611a1c565b6002805534156116cc57338152600460205260408120611696348254611a59565b90556040513481527f0a7bb2e28cc4698aac06db79cf9163bfcc20719286cf59fa7d492ceda1b8edc260203392a2600160025580f35b60405162461bcd60e51b815260206004820152601c60248201527f4d757374206465706f736974206e6f6e2d7a65726f20616d6f756e74000000006044820152606490fd5b90503461070d57602036600319011261070d576004356001600160a01b038116908190036101a35782604091602094526005845220548152f35b60806003198201126117d45760043591602435916044359167ffffffffffffffff908184116117d457826023850112156117d4578360040135938285116117d4578360248660051b830101116117d4576024019392606435908382116117d457806023830112156117d45781600401359384116117d457602484830101116117d4576024019190565b600080fd5b600354811015611814576009906003600052027fc2575a0e9e593c00f959f8c92f12db2869c3395a3b0502d05e2516446f71f85b0190600090565b634e487b7160e01b600052603260045260246000fd5b90600182811c9216801561185a575b602083101461184457565b634e487b7160e01b600052602260045260246000fd5b91607f1691611839565b610140810190811067ffffffffffffffff82111761188157604052565b634e487b7160e01b600052604160045260246000fd5b90601f8019910116810190811067ffffffffffffffff82111761188157604052565b90604051918260008254926118cd8461182a565b90818452600194858116908160001461193c57506001146118f9575b50506118f792500383611897565b565b9093915060005260209081600020936000915b8183106119245750506118f7935082010138806118e9565b8554888401850152948501948794509183019161190c565b9150506118f794506020925060ff191682840152151560051b82010138806118e9565b906002821015610c385752565b906006821015610c385752565b919082519283825260005b8481106119a5575050826000602080949584010152601f8019910116010190565b602081830181015184830182015201611984565b67ffffffffffffffff811161188157601f01601f191660200190565b81601f820112156117d4578035906119ec826119b9565b926119fa6040519485611897565b828452602083830101116117d457816000926020809301838601378301015290565b15611a2357565b60405162461bcd60e51b815260206004820152600e60248201526d1499595b9d1c985b9d0818d85b1b60921b6044820152606490fd5b91908201809211611a6657565b634e487b7160e01b600052601160045260246000fd5b91908203918211611a6657565b3d15611ab4573d90611a9a826119b9565b91611aa86040519384611897565b82523d6000602084013e565b606090565b6002821015610c385752565b15611acc57565b60405162461bcd60e51b815260206004820152600e60248201526d125b9d985b1a59081a9bd888125160921b6044820152606490fd5b15611b0957565b60405162461bcd60e51b815260206004820152600d60248201526c1499599d5b990819985a5b1959609a1b6044820152606490fd5b81835290916001600160fb1b0383116117d45760209260051b809284830137010190565b908060209392818452848401376000828201840152601f01601f1916010190565b15611b8a57565b60405162461bcd60e51b81526020600482015260096024820152682737ba1037bbb732b960b91b6044820152606490fd5b6002811015610c3857611bce57610e1090565b6201518090565b60028101549060ff8260081c166006811015610c3857600103611c10576008611c0360ff611c0b9416611bbb565b910154611a59565b421190565b505060009056fea264697066735822122023f13ba4212bc65309fc76938ed7775bdd73aa86df111a737ceb04aa9ff9379864736f6c63430008140033",
  "linkReferences": {},
  "deployedLinkReferences": {}
}