{
  "_format": "hh-sol-artifact-1",
  "contractName": "MockVerifier",
  "sourceName": "src/MockVerifier.sol",
  "abi": [
    {
      "inputs": [
        {
          "internalType": "uint256[]",
          "name": "",
          "type": "uint256[]"
        },
        {
          "internalType": "bytes",
          "name": "",
          "type": "bytes"
        }
      ],
      "name": "verify",
      "outputs": [
        {
          "internalType": "bool",
          "name": "",
          "type": "bool"
        }
      ],
      "stateMutability": "pure",
      "type": "function"
    }
  ],
  "bytecode": "0x608080604052346100155760e5908161001b8239f35b600080fdfe6080806040526004361015601257600080fd5b600090813560e01c63bd205a9014602857600080fd5b34609f576040366003190112609f5767ffffffffffffffff60043581811160a3573660238201121560a35780600401359082821160ab57602490369260051b01011160a7576024359080821160a3573660238301121560a357816004013590811160a35736910160240111609f5780600160209252f35b5080fd5b8380fd5b8280fd5b8480fdfea2646970667358221220061a30e2e1ec76942bacd1dd7d1fb5d56221819c74e54d23cfe05a17fe12da0464736f6c63430008140033",
  "linkReferences": {},
  "deployedLinkReferences": {}
}