{"src/MockVerifier.sol":{"MockVerifier":{"abi":[{"inputs":[{"internalType":"uint256[]","name":"","type":"uint256[]"},{"internalType":"bytes","name":"","type":"bytes"}],"name":"verify","outputs":[{"internalType":"bool","name":"","type":"bool"}],"stateMutability":"pure","type":"function"}],"evm":{"bytecode":{"linkReferences":{},"object":"608080604052346100155760e5908161001b8239f35b600080fdfe6080806040526004361015601257600080fd5b600090813560e01c63bd205a9014602857600080fd5b34609f576040366003190112609f5767ffffffffffffffff60043581811160a3573660238201121560a35780600401359082821160ab57602490369260051b01011160a7576024359080821160a3573660238301121560a357816004013590811160a35736910160240111609f5780600160209252f35b5080fd5b8380fd5b8280fd5b8480fdfea2646970667358221220061a30e2e1ec76942bacd1dd7d1fb5d56221819c74e54d23cfe05a17fe12da0464736f6c63430008140033","opcodes":"PUSH1 0x80 DUP1 PUSH1 0x40 MSTORE CALLVALUE PUSH2 0x15 JUMPI PUSH1 0xE5 SWAP1 DUP2 PUSH2 0x1B DUP3 CODECOPY RETURN JUMPDEST PUSH1 0x0 DUP1 REVERT INVALID PUSH1 0x80 DUP1 PUSH1 0x40 MSTORE PUSH1 0x4 CALLDATASIZE LT ISZERO PUSH1 0x12 JUMPI PUSH1 0x0 DUP1 REVERT JUMPDEST PUSH1 0x0 SWAP1 DUP2 CALLDATALOAD PUSH1 0xE0 SHR PUSH4 0xBD205A90 EQ PUSH1 0x28 JUMPI PUSH1 0x0 DUP1 REVERT JUMPDEST CALLVALUE PUSH1 0x9F JUMPI PUSH1 0x40 CALLDATASIZE PUSH1 0x3 NOT ADD SLT PUSH1 0x9F JUMPI PUSH8 0xFFFFFFFFFFFFFFFF PUSH1 0x4 CALLDATALOAD DUP2 DUP2 GT PUSH1 0xA3 JUMPI CALLDATASIZE PUSH1 0x23 DUP3 ADD SLT ISZERO PUSH1 0xA3 JUMPI DUP1 PUSH1 0x4 ADD CALLDATALOAD SWAP1 DUP3 DUP3 GT PUSH1 0xAB JUMPI PUSH1 0x24 SWAP1 CALLDATASIZE SWAP3 PUSH1 0x5 SHL ADD ADD GT PUSH1 0xA7 JUMPI PUSH1 0x24 CALLDATALOAD SWAP1 DUP1 DUP3 GT PUSH1 0xA3 JUMPI CALLDATASIZE PUSH1 0x23 DUP4 ADD SLT ISZERO PUSH1 0xA3 JUMPI DUP2 PUSH1 0x4 ADD CALLDATALOAD SWAP1 DUP2 GT PUSH1 0xA3 JUMPI CALLDATASIZE SWAP2 ADD PUSH1 0x24 ADD GT PUSH1 0x9F JUMPI DUP1 PUSH1 0x1 PUSH1 0x20 SWAP3 MSTORE RETURN JUMPDEST POP DUP1 REVERT JUMPDEST DUP4 DUP1 REVERT JUMPDEST DUP3 DUP1 REVERT JUMPDEST DUP5 DUP1 REVERT INVALID LOG2 PUSH5 0x6970667358 0x22 SLT KECCAK256 MOD BYTE ADDRESS 0xE2 0xE1 0xEC PUSH23 0x942BACD1DD7D1FB5D56221819C74E54D23CFE05A17FE12 0xDA DIV PUSH5 0x736F6C6343 STOP ADDMOD EQ STOP CALLER "},"methodIdentifiers":{"verify(uint256[],bytes)":"bd205a90"}}}}}