{"src/VouchManager.sol":{"OblivionManager":{"abi":[{"inputs":[{"internalType":"address","name":"_verifier","type":"address"}],"stateMutability":"nonpayable","type":"constructor"},{"anonymous":false,"inputs":[{"indexed":true,"internalType":"uint256","name":"jobId","type":"uint256"},{"indexed":true,"internalType":"address","name":"requester","type":"address"}],"name":"JobCancelled","type":"event"},{"anonymous":false,"inputs":[{"indexed":true,"internalType":"uint256","name":"jobId","type":"uint256"},{"indexed":true,"internalType":"address","name":"provider","type":"address"},{"indexed":false,"internalType":"bytes32","name":"updateHash","type":"bytes32"}],"name":"JobCompleted","type":"event"},{"anonymous":false,"inputs":[{"indexed":true,"internalType":"uint256","name":"jobId","type":"uint256"},{"indexed":false,"internalType":"enum OblivionManager.JobType","name":"jobType","type":"uint8"},{"indexed":false,"internalType":"uint256","name":"reward","type":"uint256"},{"indexed":true,"internalType":"address","name":"requester","type":"address"}],"name":"JobCreated","type":"event"},{"anonymous":false,"inputs":[{"indexed":true,"internalType":"uint256","name":"jobId","type":"uint256"},{"indexed":true,"internalType":"address","name":"provider","type":"address"}],"name":"JobExpired","type":"event"},{"anonymous":false,"inputs":[{"indexed":true,"internalType":"uint256","name":"jobId","type":"uint256"},{"indexed":true,"internalType":"address","name":"provider","type":"address"}],"name":"JobProcessing","type":"event"},{"anonymous":false,"inputs":[{"indexed":true,"internalType":"address","name":"worker","type":"address"},{"indexed":false,"internalType":"uint256","name":"amount","type":"uint256"}],"name":"StakeDeposited","type":"event"},{"anonymous":false,"inputs":[{"indexed":true,"internalType":"address","name":"worker","type":"address"},{"indexed":false,"internalType":"uint256","name":"amount","type":"uint256"}],"name":"StakeWithdrawn","type":"event"},{"anonymous":false,"inputs":[{"indexed":true,"internalType":"address","name":"worker","type":"address"},{"indexed":false,"internalType":"uint256","name":"amount","type":"uint256"},{"indexed":true,"internalType":"uint256","name":"jobId","type":"uint256"}],"name":"WorkerSlashed","type":"event"},{"inputs":[],"name":"INFERENCE_TIMEOUT","outputs":[{"internalType":"uint256","name":"","type":"uint256"}],"stateMutability":"view","type":"function"},{"inputs":[],"name":"TRAINING_TIMEOUT","outputs":[{"internalType":"uint256","name":"","type":"uint256"}],"stateMutability":"view","type":"function"},{"inputs":[{"internalType":"uint256","name":"_jobId","type":"uint256"}],"name":"cancelJob","outputs":[],"stateMutability":"nonpayable","type":"function"},{"inputs":[{"internalType":"uint256","name":"_jobId","type":"uint256"}],"name":"claimJob","outputs":[],"stateMutability":"nonpayable","type":"function"},{"inputs":[{"internalType":"enum OblivionManager.JobType","name":"_type","type":"uint8"},{"internalType":"string","name":"_modelHash","type":"string"},{"internalType":"string","name":"_dataHash","type":"string"}],"name":"createJob","outputs":[],"stateMutability":"payable","type":"function"},{"inputs":[],"name":"depositStake","outputs":[],"stateMutability":"payable","type":"function"},{"inputs":[{"internalType":"uint256","name":"_jobId","type":"uint256"}],"name":"expireJob","outputs":[],"stateMutability":"nonpayable","type":"function"},{"inputs":[{"internalType":"uint256","name":"_jobId","type":"uint256"}],"name":"getJob","outputs":[{"components":[{"internalType":"address","name":"requester","type":"address"},{"internalType":"uint256","name":"reward","type":"uint256"},{"internalType":"enum OblivionManager.JobType","name":"jobType","type":"uint8"},{"internalType":"enum OblivionManager.JobStatus","name":"status","type":"uint8"},{"internalType":"string","name":"modelHash","type":"string"},{"internalType":"string","name":"dataHash","type":"string"},{"internalType":"address","name":"provider","type":"address"},{"internalType":"uint256","name":"stake","type":"uint256"},{"internalType":"uint256","name":"createdAt","type":"uint256"},{"internalType":"uint256","name":"claimedAt","type":"uint256"}],"internalType":"struct OblivionManager.Job","name":"","type":"tuple"}],"stateMutability":"view","type":"function"},{"inputs":[],"name":"getJobCount","outputs":[{"internalType":"uint256","name":"","type":"uint256"}],"stateMutability":"view","type":"function"},{"inputs":[{"internalType":"enum OblivionManager.JobType","name":"_type","type":"uint8"}],"name":"getTimeout","outputs":[{"internalType":"uint256","name":"","type":"uint256"}],"stateMutability":"pure","type":"function"},{"inputs":[{"internalType":"uint256","name":"_jobId","type":"uint256"}],"name":"isJobExpired","outputs":[{"internalType":"bool","name":"","type":"bool"}],"stateMutability":"view","type":"function"},{"inputs":[{"internalType":"uint256","name":"","type":"uint256"}],"name":"jobs","outputs":[{"internalType":"address","name":"requester","type":"address"},{"internalType":"uint256","name":"reward","type":"uint256"},{"internalType":"enum OblivionManager.JobType","name":"jobType","type":"uint8"},{"internalType":"enum OblivionManager.JobStatus","name":"status","type":"uint8"},{"internalType":"string","name":"modelHash","type":"string"},{"internalType":"string","name":"dataHash","type":"string"},{"internalType":"address","name":"provider","type":"address"},{"internalType":"uint256","name":"stake","type":"uint256"},{"internalType":"uint256","name":"createdAt","type":"uint256"},{"internalType":"uint256","name":"claimedAt","type":"uint256"}],"stateMutability":"view","type":"function"},{"inputs":[],"name":"owner","outputs":[{"internalType":"address","name":"","type":"address"}],"stateMutability":"view","type":"function"},{"inputs":[{"internalType":"uint256","name":"_jobId","type":"uint256"}],"name":"slashWorker","outputs":[],"stateMutability":"nonpayable","type":"function"},{"inputs":[{"internalType":"uint256","name":"_jobId","type":"uint256"},{"internalType":"bytes32","name":"_updateHash","type":"bytes32"},{"internalType":"uint256[]","name":"_pubInputs","type":"uint256[]"},{"internalType":"bytes","name":"_proof","type":"bytes"}],"name":"submitResult","outputs":[],"stateMutability":"nonpayable","type":"function"},{"inputs":[{"internalType":"uint256","name":"_jobId","type":"uint256"},{"internalType":"bytes32","name":"_updateHash","type":"bytes32"},{"internalType":"uint256[]","name":"_pubInputs","type":"uint256[]"},{"internalType":"bytes","name":"_proof","type":"bytes"}],"name":"submitTrainingUpdate","outputs":[],"stateMutability":"nonpayable","type":"function"},{"inputs":[{"internalType":"address","name":"_newOwner","type":"address"}],"name":"transferOwnership","outputs":[],"stateMutability":"nonpayable","type":"function"},{"inputs":[{"internalType":"address","name":"_newVerifier","type":"address"}],"name":"updateVerifier","outputs":[],"stateMutability":"nonpayable","type":"function"},{"inputs":[],"name":"verifier","outputs":[{"internalType":"contract IVerifier","name":"","type":"address"}],"stateMutability":"view","type":"function"},{"inputs":[{"internalType":"uint256","name":"amount","type":"uint256"}],"name":"withdrawStake","outputs":[],"stateMutability":"nonpayable","type":"function"},{"inputs":[{"internalType":"address","name":"","type":"address"}],"name":"workerReputation","outputs":[{"internalType":"uint256","name":"","type":"uint256"}],"stateMutability":"view","type":"function"},{"inputs":[{"internalType":"address","name":"","type":"address"}],"name":"workerStakes","outputs":[{"internalType":"uint256","name":"","type":"uint256"}],"stateMutability":"view","type":"function"},{"stateMutability":"payable","type":"receive"}],"evm":{"bytecode":{"linkReferences":{},"object":"6080346100ce57601f611d3738819003918201601f19168301916001600160401b038311848410176100d3578084926020946040528339810103126100ce57516001600160a01b038116908190036100ce57801561008957600080546001600160a01b031990811690921790556001805490911633178155600255604051611c4d90816100ea8239f35b60405162461bcd60e51b815260206004820152601860248201527f496e76616c6964207665726966696572206164647265737300000000000000006044820152606490fd5b600080fd5b634e487b7160e01b600052604160045260246000fdfe608080604052600436101561001d575b50361561001b57600080fd5b005b600090813560e01c90816308a101b814611711575080630d2d76a21461165b57806316aad824146115c1578063180aedf3146114db5780631dffa3dc146113b357806325d5971f146112535780632792cf03146112215780632b7ac3f3146111fa5780634e2b39ca146111dd57806359abb656146111bf5780638da5cb5b1461119657806397fc007c14611102578063b02b4a2f146110e4578063b3212e69146110a7578063bade066b14610dbb578063bc76136c14610c4e578063bf22c45714610a76578063d7df14781461093b578063dad788d9146108fc578063e3e4b9fb14610711578063ec3cb224146101aa5763f2fde38b0361000f57346101a75760203660031901126101a7576004356001600160a01b03818116918290036101a35761014f6001549182163314611b83565b8115610166576001600160a01b0319161760015580f35b60405162461bcd60e51b8152602060048201526015602482015274496e76616c6964206f776e6572206164647265737360581b6044820152606490fd5b8280fd5b80fd5b5060603660031901126101a757600260043510156101a75760243567ffffffffffffffff811161070d576101e29036906004016119d5565b9060443567ffffffffffffffff811161070d576102039036906004016119d5565b610211600280541415611a1c565b6002805534156106d65782511561069b57805115610661576040519261023684611864565b33845234602085015261024e60043560408601611ab9565b826060850152608084015260a08301528060c08301528060e083015242610100830152806101208301526003546801000000000000000081101561064d5780600161029c92016003556117d9565b61063957825181546001600160a01b0319166001600160a01b039190911617815560208301516001820155604083015160028083019190811015610625578154606086015160068110156106115761ff0060ff9160081b1692169061ffff191617179055608083015192835167ffffffffffffffff81116105fd57610324600384015461182a565b601f81116105b9575b506020601f821160011461054d5784958293949592610542575b50508160011b916000199060031b1c19161760038301555b60a081015180519067ffffffffffffffff821161052e57610383600485015461182a565b601f81116104ea575b50602090601f83116001146104775791806008949261012094889261046c575b50508160011b916000199060031b1c19161760048501555b60c08101516005850180546001600160a01b0319166001600160a01b039290921691909117905560e0810151600685015561010081015160078501550151910155600354600019810190811161045857604051906104248260043561195f565b3460208301527fb4421dcedf6429dc519ceeb2ca0730a119b29407bf0f574238cf66d08f47ad2a60403393a3600160025580f35b634e487b7160e01b82526011600452602482fd5b0151905038806103ac565b906004850186526020862091865b601f19851681106104d2575092600894926001926101209583601f198116106104b9575b505050811b0160048501556103c4565b015160001960f88460031b161c191690553880806104a9565b91926020600181928685015181550194019201610485565b60048501865260208620601f840160051c810160208510610527575b601f830160051c8201811061051c57505061038c565b878155600101610506565b5080610506565b634e487b7160e01b85526041600452602485fd5b015190503880610347565b6003840185526020852090855b601f19841681106105a1575060019394959683601f19811610610588575b505050811b01600383015561035f565b015160001960f88460031b161c19169055388080610578565b9091602060018192858b01518155019301910161055a565b60038401855260208520601f830160051c8101602084106105f6575b601f830160051c820181106105eb57505061032d565b8681556001016105d5565b50806105d5565b634e487b7160e01b84526041600452602484fd5b634e487b7160e01b86526021600452602486fd5b634e487b7160e01b84526021600452602484fd5b634e487b7160e01b82526004829052602482fd5b634e487b7160e01b82526041600452602482fd5b60405162461bcd60e51b815260206004820152601260248201527111185d18481a185cda081c995c5d5a5c995960721b6044820152606490fd5b60405162461bcd60e51b8152602060048201526013602482015272135bd9195b081a185cda081c995c5d5a5c9959606a1b6044820152606490fd5b60405162461bcd60e51b815260206004820152600f60248201526e14995dd85c99081c995c5d5a5c9959608a1b6044820152606490fd5b5080fd5b50346101a757602090816003193601126101a7576004356002906107388280541415611a1c565b8180556107486003548210611ac5565b610751816117d9565b508281019081549160ff8360081c1660068110156108e8576108b15781546001600160a01b0316331461086c57600182015460011c9233875260048852836040882054106108135791600196979161010060049460058401336bffffffffffffffffffffffff60a01b82541617905561ff001916179055836006820155600842910155338752526107e760408620918254611a7c565b905533907f9db473c30c252a39ef7ece5cfac60ee27263af44a5d50eb607bc4522d02069c48580a35580f35b60405162461bcd60e51b815260048101899052602b60248201527f496e73756666696369656e74207374616b652028353025206f6620726577617260448201526a642072657175697265642960a81b6064820152608490fd5b60405162461bcd60e51b815260048101889052601e60248201527f5265717565737465722063616e6e6f7420636c61696d206f776e206a6f6200006044820152606490fd5b60405162461bcd60e51b815260048101889052600f60248201526e4a6f62206e6f742070656e64696e6760881b6044820152606490fd5b634e487b7160e01b87526021600452602487fd5b50346101a75760203660031901126101a757602061093161092b6004356109266003548210611ac5565b6117d9565b50611bd5565b6040519015158152f35b50346101a75760203660031901126101a7576001546001600160a01b03906004359061096a9083163314611b83565b60029061097a8280541415611a1c565b81805561098a6003548210611ac5565b610993816117d9565b50928284019081549460ff8660081c166006811015610a6257600103610a1d57600195610a128880808086887f35bade04563d8d0b18e6cdc95a7a0eb5b8d9999ac05e48fbef04a65b6cd5ca1399600560209a0154169a61040060068401549961ff0019161790558d8201549154165af1610a0c611a89565b50611b02565b604051908152a35580f35b60405162461bcd60e51b815260206004820152601e60248201527f43616e206f6e6c7920736c6173682070726f63657373696e67206a6f627300006044820152606490fd5b634e487b7160e01b88526021600452602488fd5b50346101a75760203660031901126101a757610ae49060043590610120604051610a9f81611864565b82815282602082015282604082015282606082015260606080820152606060a08201528260c08201528260e08201528261010082015201526109266003548210611ac5565b5060405190610af282611864565b80546001600160a01b0316825260018101546020830152600281015460ff90610b2081831660408601611ab9565b60081c16906006821015610c38576008916060840152610b42600382016118b9565b6080840152610b53600482016118b9565b60a084015260018060a01b0360058201541660c0840152600681015460e08401526007810154610100840152015461012082015260405180916020825260018060a01b03815116602083015260208101516040830152610bbb6040820151606084019061195f565b610bcd6060820151608084019061196c565b6080810151610120610c06610bf0610140938460a0880152610160870190611979565b60a0850151868203601f190160c0880152611979565b9260018060a01b0360c08201511660e086015260e0810151610100860152610100810151828601520151908301520390f35b634e487b7160e01b600052602160045260246000fd5b50346101a75760203660031901126101a7576004356002610c728180541415611a1c565b808055610c826003548310611ac5565b610c8b826117d9565b5091818301805460ff8160081c1660068110156108e857600103610d8157610cb285611bd5565b15610d465760207f35bade04563d8d0b18e6cdc95a7a0eb5b8d9999ac05e48fbef04a65b6cd5ca1391610d158880808060019b8c8060a01b03806005830154169a61050060068401549961ff0019161790558d8201549154165af1610a0c611a89565b6040519084867f2ff4b096ccebd1944c1681b8f847b6588aa34a90308ec467bb927e10c01921518b80a38152a35580f35b60405162461bcd60e51b8152602060048201526013602482015272129bd8881b9bdd081e595d08195e1c1a5c9959606a1b6044820152606490fd5b60405162461bcd60e51b81526020600482015260126024820152714a6f62206e6f742070726f63657373696e6760701b6044820152606490fd5b50346101a757610dca3661174b565b939290959491600294610de08680541415611a1c565b858055610df06003548510611ac5565b610df9846117d9565b50600581015490936001600160a01b039290918316330361106a578785019384549360ff8560081c1660068110156110565760010361101d57610e3b87611bd5565b610fe6578a54166040518080958194630bd205a960e41b835260048301604090526044830190610e6a92611b3e565b81810360031901602483015260209e8f96610e859291611b62565b03915afa908115610fdb578891610fa1575b5015610f695761ff0019166102001790556001810154600690910154610ebc91611a59565b338552600586526040852080549060018201809211610f55578680938193829355335af1610ee8611a89565b5015610f20577f0fd54bd364fa9e67f17b091aefe930932c09fe7651cf5ad02c71a418f3341444600194956040519384523393a35580f35b60405162461bcd60e51b815260048101869052600d60248201526c14185e5bdd5d0819985a5b1959609a1b6044820152606490fd5b634e487b7160e01b87526011600452602487fd5b60405162461bcd60e51b815260048101899052601060248201526f24b73b30b634b2102d2590383937b7b360811b6044820152606490fd5b90508881813d8311610fd4575b610fb88183611897565b81010312610fd057518015158103610fd05738610e97565b8780fd5b503d610fae565b6040513d8a823e3d90fd5b60405162461bcd60e51b815260206004820152600f60248201526e129bd8881a185cc8195e1c1a5c9959608a1b6044820152606490fd5b60405162461bcd60e51b81526020600482015260116024820152704e6f7420696e2070726f63657373696e6760781b6044820152606490fd5b634e487b7160e01b8c52602160045260248cfd5b60405162461bcd60e51b81526020600482015260156024820152742737ba1030b9b9b4b3b732b210383937bb34b232b960591b6044820152606490fd5b50346101a75760203660031901126101a7576004356001600160a01b0381169081900361070d578160409160209352600483522054604051908152f35b50346101a757806003193601126101a7576020600354604051908152f35b50346101a75760203660031901126101a7576004356001600160a01b03818116918290036101a35761113990600154163314611b83565b80156111515781546001600160a01b03191617815580f35b60405162461bcd60e51b815260206004820152601860248201527f496e76616c6964207665726966696572206164647265737300000000000000006044820152606490fd5b50346101a757806003193601126101a7576001546040516001600160a01b039091168152602090f35b50346101a757806003193601126101a7576020604051620151808152f35b50346101a757806003193601126101a7576020604051610e108152f35b50346101a757806003193601126101a757546040516001600160a01b039091168152602090f35b50346101a75760203660031901126101a7576004359060028210156101a757602061124b83611bbb565b604051908152f35b50346101a75760208060031936011261070d5760043590611278600280541415611a1c565b60028055811561136f57338352600481528160408420541061132b5733835260048152604083206112aa838254611a7c565b90558280808085335af16112bc611a89565b50156112f5577f8108595eb6bad3acefa9da467d90cc2217686d5c5ac85460f8b7849c840645fc906040519283523392a2600160025580f35b6064906040519062461bcd60e51b82526004820152600f60248201526e151c985b9cd9995c8819985a5b1959608a1b6044820152fd5b6064906040519062461bcd60e51b82526004820152601a60248201527f496e73756666696369656e74207374616b652062616c616e63650000000000006044820152fd5b6064906040519062461bcd60e51b82526004820152601d60248201527f4d757374207769746864726177206e6f6e2d7a65726f20616d6f756e740000006044820152fd5b50346101a75760203660031901126101a75760043560026113d78180541415611a1c565b8080556113e76003548310611ac5565b6113f0826117d9565b5080549092906001600160a01b031633036114a6578183019283549360ff8560081c1660068110156108e85761146f578580806001611445958295610300839b61ff0019161790550154335af1610a0c611a89565b33907ff1ab0865975dad5c69ae8e4baaf13114c875728afa7cc86368534c22a631d0b08580a35580f35b60405162461bcd60e51b815260206004820152600f60248201526e4e6f742063616e63656c6c61626c6560881b6044820152606490fd5b60405162461bcd60e51b815260206004820152600d60248201526c2737ba103932b8bab2b9ba32b960991b6044820152606490fd5b50346101a75760203660031901126101a75760043560035481101561070d57611503906117d9565b5080546001820154600283015490926001600160a01b0392831692919061152c600382016118b9565b6115a661153b600484016118b9565b946005840154169461159860068501549361158760086007880154970154976040519b8c9b8c5260208c015261157760408c0160ff831661195f565b60ff60608c019160081c1661196c565b6101408060808b0152890190611979565b9087820360a0890152611979565b9360c086015260e08501526101008401526101208301520390f35b50346101a757806115d13661174b565b9594929195303b156116575761161161162393604051988997889763bade066b60e01b895260048901526024880152608060448801526084870191611b3e565b84810360031901606486015291611b62565b038183305af1801561164c57611637575080f35b67ffffffffffffffff811161064d5760405280f35b6040513d84823e3d90fd5b8580fd5b50806003193601126101a757611675600280541415611a1c565b6002805534156116cc57338152600460205260408120611696348254611a59565b90556040513481527f0a7bb2e28cc4698aac06db79cf9163bfcc20719286cf59fa7d492ceda1b8edc260203392a2600160025580f35b60405162461bcd60e51b815260206004820152601c60248201527f4d757374206465706f736974206e6f6e2d7a65726f20616d6f756e74000000006044820152606490fd5b90503461070d57602036600319011261070d576004356001600160a01b038116908190036101a35782604091602094526005845220548152f35b60806003198201126117d45760043591602435916044359167ffffffffffffffff908184116117d457826023850112156117d4578360040135938285116117d4578360248660051b830101116117d4576024019392606435908382116117d457806023830112156117d45781600401359384116117d457602484830101116117d4576024019190565b600080fd5b600354811015611814576009906003600052027fc2575a0e9e593c00f959f8c92f12db2869c3395a3b0502d05e2516446f71f85b0190600090565b634e487b7160e01b600052603260045260246000fd5b90600182811c9216801561185a575b602083101461184457565b634e487b7160e01b600052602260045260246000fd5b91607f1691611839565b610140810190811067ffffffffffffffff82111761188157604052565b634e487b7160e01b600052604160045260246000fd5b90601f8019910116810190811067ffffffffffffffff82111761188157604052565b90604051918260008254926118cd8461182a565b90818452600194858116908160001461193c57506001146118f9575b50506118f792500383611897565b565b9093915060005260209081600020936000915b8183106119245750506118f7935082010138806118e9565b8554888401850152948501948794509183019161190c565b9150506118f794506020925060ff191682840152151560051b82010138806118e9565b906002821015610c385752565b906006821015610c385752565b919082519283825260005b8481106119a5575050826000602080949584010152601f8019910116010190565b602081830181015184830182015201611984565b67ffffffffffffffff811161188157601f01601f191660200190565b81601f820112156117d4578035906119ec826119b9565b926119fa6040519485611897565b828452602083830101116117d457816000926020809301838601378301015290565b15611a2357565b60405162461bcd60e51b815260206004820152600e60248201526d1499595b9d1c985b9d0818d85b1b60921b6044820152606490fd5b91908201809211611a6657565b634e487b7160e01b600052601160045260246000fd5b91908203918211611a6657565b3d15611ab4573d90611a9a826119b9565b91611aa86040519384611897565b82523d6000602084013e565b606090565b6002821015610c385752565b15611acc57565b60405162461bcd60e51b815260206004820152600e60248201526d125b9d985b1a59081a9bd888125160921b6044820152606490fd5b15611b0957565b60405162461bcd60e51b815260206004820152600d60248201526c1499599d5b990819985a5b1959609a1b6044820152606490fd5b81835290916001600160fb1b0383116117d45760209260051b809284830137010190565b908060209392818452848401376000828201840152601f01601f1916010190565b15611b8a57565b60405162461bcd60e51b81526020600482015260096024820152682737ba1037bbb732b960b91b6044820152606490fd5b6002811015610c3857611bce57610e1090565b6201518090565b60028101549060ff8260081c166006811015610c3857600103611c10576008611c0360ff611c0b9416611bbb565b910154611a59565b421190565b505060009056fea264697066735822122023f13ba4212bc65309fc76938ed7775bdd73aa86df111a737ceb04aa9ff9379864736f6c63430008140033","opcodes":"PUSH1 0x80 CALLVALUE PUSH2 0xCE JUMPI PUSH1 0x1F PUSH2 0x1D37 CODESIZE DUP2 SWAP1 SUB SWAP2 DUP3 ADD PUSH1 0x1F NOT AND DUP4 ADD SWAP2 PUSH1 0x1 PUSH1 0x1 PUSH1 0x40 SHL SUB DUP4 GT DUP5 DUP5 LT OR PUSH2 0xD3 JUMPI DUP1 DUP5 SWAP3 PUSH1 0x20 SWAP5 PUSH1 0x40 MSTORE DUP4 CODECOPY DUP2 ADD SUB SLT PUSH2 0xCE JUMPI MLOAD PUSH1 0x1 PUSH1 0x1 PUSH1 0xA0 SHL SUB DUP2 AND SWAP1 DUP2 SWAP1 SUB PUSH2 0xCE JUMPI DUP1 ISZERO PUSH2 0x89 JUMPI PUSH1 0x0 DUP1 SLOAD PUSH1 0x1 PUSH1 0x1 PUSH1 0xA0 SHL SUB NOT SWAP1 DUP2 AND SWAP1 SWAP3 OR SWAP1 SSTORE PUSH1 0x1 DUP1 SLOAD SWAP1 SWAP2 AND CALLER OR DUP2 SSTORE PUSH1 0x2 SSTORE PUSH1 0x40 MLOAD PUSH2 0x1C4D SWAP1 DUP2 PUSH2 0xEA DUP3 CODECOPY RETURN JUMPDEST PUSH1 0x40 MLOAD PUSH3 0x461BCD PUSH1 0xE5 SHL DUP2 MSTORE PUSH1 0x20 PUSH1 0x4 DUP3 ADD MSTORE PUSH1 0x18 PUSH1 0x24 DUP3 ADD MSTORE PUSH32 0x496E76616C696420766572696669657220616464726573730000000000000000 PUSH1 0x44 DUP3 ADD MSTORE PUSH1 0x64 SWAP1 REVERT JUMPDEST PUSH1 0x0 DUP1 REVERT JUMPDEST PUSH4 0x4E487B71 PUSH1 0xE0 SHL PUSH1 0x0 MSTORE PUSH1 0x41 PUSH1 0x4 MSTORE PUSH1 0x24 PUSH1 0x0 REVERT INVALID PUSH1 0x80 DUP1 PUSH1 0x40 MSTORE PUSH1 0x4 CALLDATASIZE LT ISZERO PUSH2 0x1D JUMPI JUMPDEST POP CALLDATASIZE ISZERO PUSH2 0x1B JUMPI PUSH1 0x0 DUP1 REVERT JUMPDEST STOP JUMPDEST PUSH1 0x0 SWAP1 DUP2 CALLDATALOAD PUSH1 0xE0 SHR SWAP1 DUP2 PUSH4 0x8A101B8 EQ PUSH2 0x1711 JUMPI POP DUP1 PUSH4 0xD2D76A2 EQ PUSH2 0x165B JUMPI DUP1 PUSH4 0x16AAD824 EQ PUSH2 0x15C1 JUMPI DUP1 PUSH4 0x180AEDF3 EQ PUSH2 0x14DB JUMPI DUP1 PUSH4 0x1DFFA3DC EQ PUSH2 0x13B3 JUMPI DUP1 PUSH4 0x25D5971F EQ PUSH2 0x1253 JUMPI DUP1 PUSH4 0x2792CF03 EQ PUSH2 0x1221 JUMPI DUP1 PUSH4 0x2B7AC3F3 EQ PUSH2 0x11FA JUMPI DUP1 PUSH4 0x4E2B39CA EQ PUSH2 0x11DD JUMPI DUP1 PUSH4 0x59ABB656 EQ PUSH2 0x11BF JUMPI DUP1 PUSH4 0x8DA5CB5B EQ PUSH2 0x1196 JUMPI DUP1 PUSH4 0x97FC007C EQ PUSH2 0x1102 JUMPI DUP1 PUSH4 0xB02B4A2F EQ PUSH2 0x10E4 JUMPI DUP1 PUSH4 0xB3212E69 EQ PUSH2 0x10A7 JUMPI DUP1 PUSH4 0xBADE066B EQ PUSH2 0xDBB JUMPI DUP1 PUSH4 0xBC76136C EQ PUSH2 0xC4E JUMPI DUP1 PUSH4 0xBF22C457 EQ PUSH2 0xA76 JUMPI DUP1 PUSH4 0xD7DF1478 EQ PUSH2 0x93B JUMPI DUP1 PUSH4 0xDAD788D9 EQ PUSH2 0x8FC JUMPI DUP1 PUSH4 0xE3E4B9FB EQ PUSH2 0x711 JUMPI DUP1 PUSH4 0xEC3CB224 EQ PUSH2 0x1AA JUMPI PUSH4 0xF2FDE38B SUB PUSH2 0xF JUMPI CALLVALUE PUSH2 0x1A7 JUMPI PUSH1 0x20 CALLDATASIZE PUSH1 0x3 NOT ADD SLT PUSH2 0x1A7 JUMPI PUSH1 0x4 CALLDATALOAD PUSH1 0x1 PUSH1 0x1 PUSH1 0xA0 SHL SUB DUP2 DUP2 AND SWAP2 DUP3 SWAP1 SUB PUSH2 0x1A3 JUMPI PUSH2 0x14F PUSH1 0x1 SLOAD SWAP2 DUP3 AND CALLER EQ PUSH2 0x1B83 JUMP JUMPDEST DUP2 ISZERO PUSH2 0x166 JUMPI PUSH1 0x1 PUSH1 0x1 PUSH1 0xA0 SHL SUB NOT AND OR PUSH1 0x1 SSTORE DUP1 RETURN JUMPDEST PUSH1 0x40 MLOAD PUSH3 0x461BCD PUSH1 0xE5 SHL DUP2 MSTORE PUSH1 0x20 PUSH1 0x4 DUP3 ADD MSTORE PUSH1 0x15 PUSH1 0x24 DUP3 ADD MSTORE PUSH21 0x496E76616C6964206F776E65722061646472657373 PUSH1 0x58 SHL PUSH1 0x44 DUP3 ADD MSTORE PUSH1 0x64 SWAP1 REVERT JUMPDEST DUP3 DUP1 REVERT JUMPDEST DUP1 REVERT JUMPDEST POP PUSH1 0x60 CALLDATASIZE PUSH1 0x3 NOT ADD SLT PUSH2 0x1A7 JUMPI PUSH1 0x2 PUSH1 0x4 CALLDATALOAD LT ISZERO PUSH2 0x1A7 JUMPI PUSH1 0x24 CALLDATALOAD PUSH8 0xFFFFFFFFFFFFFFFF DUP2 GT PUSH2 0x70D JUMPI PUSH2 0x1E2 SWAP1 CALLDATASIZE SWAP1 PUSH1 0x4 ADD PUSH2 0x19D5 JUMP JUMPDEST SWAP1 PUSH1 0x44 CALLDATALOAD PUSH8 0xFFFFFFFFFFFFFFFF DUP2 GT PUSH2 0x70D JUMPI PUSH2 0x203 SWAP1 CALLDATASIZE SWAP1 PUSH1 0x4 ADD PUSH2 0x19D5 JUMP JUMPDEST PUSH2 0x211 PUSH1 0x2 DUP1 SLOAD EQ ISZERO PUSH2 0x1A1C JUMP JUMPDEST PUSH1 0x2 DUP1 SSTORE CALLVALUE ISZERO PUSH2 0x6D6 JUMPI DUP3 MLOAD ISZERO PUSH2 0x69B JUMPI DUP1 MLOAD ISZERO PUSH2 0x661 JUMPI PUSH1 0x40 MLOAD SWAP3 PUSH2 0x236 DUP5 PUSH2 0x1864 JUMP JUMPDEST CALLER DUP5 MSTORE CALLVALUE PUSH1 0x20 DUP6 ADD MSTORE PUSH2 0x24E PUSH1 0x4 CALLDATALOAD PUSH1 0x40 DUP7 ADD PUSH2 0x1AB9 JUMP JUMPDEST DUP3 PUSH1 0x60 DUP6 ADD MSTORE PUSH1 0x80 DUP5 ADD MSTORE PUSH1 0xA0 DUP4 ADD MSTORE DUP1 PUSH1 0xC0 DUP4 ADD MSTORE DUP1 PUSH1 0xE0 DUP4 ADD MSTORE TIMESTAMP PUSH2 0x100 DUP4 ADD MSTORE DUP1 PUSH2 0x120 DUP4 ADD MSTORE PUSH1 0x3 SLOAD PUSH9 0x10000000000000000 DUP2 LT ISZERO PUSH2 0x64D JUMPI DUP1 PUSH1 0x1 PUSH2 0x29C SWAP3 ADD PUSH1 0x3 SSTORE PUSH2 0x17D9 JUMP JUMPDEST PUSH2 0x639 JUMPI DUP3 MLOAD DUP2 SLOAD PUSH1 0x1 PUSH1 0x1 PUSH1 0xA0 SHL SUB NOT AND PUSH1 0x1 PUSH1 0x1 PUSH1 0xA0 SHL SUB SWAP2 SWAP1 SWAP2 AND OR DUP2 SSTORE PUSH1 0x20 DUP4 ADD MLOAD PUSH1 0x1 DUP3 ADD SSTORE PUSH1 0x40 DUP4 ADD MLOAD PUSH1 0x2 DUP1 DUP4 ADD SWAP2 SWAP1 DUP2 LT ISZERO PUSH2 0x625 JUMPI DUP2 SLOAD PUSH1 0x60 DUP7 ADD MLOAD PUSH1 0x6 DUP2 LT ISZERO PUSH2 0x611 JUMPI PUSH2 0xFF00 PUSH1 0xFF SWAP2 PUSH1 0x8 SHL AND SWAP3 AND SWAP1 PUSH2 0xFFFF NOT AND OR OR SWAP1 SSTORE PUSH1 0x80 DUP4 ADD MLOAD SWAP3 DUP4 MLOAD PUSH8 0xFFFFFFFFFFFFFFFF DUP2 GT PUSH2 0x5FD JUMPI PUSH2 0x324 PUSH1 0x3 DUP5 ADD SLOAD PUSH2 0x182A JUMP JUMPDEST PUSH1 0x1F DUP2 GT PUSH2 0x5B9 JUMPI JUMPDEST POP PUSH1 0x20 PUSH1 0x1F DUP3 GT PUSH1 0x1 EQ PUSH2 0x54D JUMPI DUP5 SWAP6 DUP3 SWAP4 SWAP5 SWAP6 SWAP3 PUSH2 0x542 JUMPI JUMPDEST POP POP DUP2 PUSH1 0x1 SHL SWAP2 PUSH1 0x0 NOT SWAP1 PUSH1 0x3 SHL SHR NOT AND OR PUSH1 0x3 DUP4 ADD SSTORE JUMPDEST PUSH1 0xA0 DUP2 ADD MLOAD DUP1 MLOAD SWAP1 PUSH8 0xFFFFFFFFFFFFFFFF DUP3 GT PUSH2 0x52E JUMPI PUSH2 0x383 PUSH1 0x4 DUP6 ADD SLOAD PUSH2 0x182A JUMP JUMPDEST PUSH1 0x1F DUP2 GT PUSH2 0x4EA JUMPI JUMPDEST POP PUSH1 0x20 SWAP1 PUSH1 0x1F DUP4 GT PUSH1 0x1 EQ PUSH2 0x477 JUMPI SWAP2 DUP1 PUSH1 0x8 SWAP5 SWAP3 PUSH2 0x120 SWAP5 DUP9 SWAP3 PUSH2 0x46C JUMPI JUMPDEST POP POP DUP2 PUSH1 0x1 SHL SWAP2 PUSH1 0x0 NOT SWAP1 PUSH1 0x3 SHL SHR NOT AND OR PUSH1 0x4 DUP6 ADD SSTORE JUMPDEST PUSH1 0xC0 DUP2 ADD MLOAD PUSH1 0x5 DUP6 ADD DUP1 SLOAD PUSH1 0x1 PUSH1 0x1 PUSH1 0xA0 SHL SUB NOT AND PUSH1 0x1 PUSH1 0x1 PUSH1 0xA0 SHL SUB SWAP3 SWAP1 SWAP3 AND SWAP2 SWAP1 SWAP2 OR SWAP1 SSTORE PUSH1 0xE0 DUP2 ADD MLOAD PUSH1 0x6 DUP6 ADD SSTORE PUSH2 0x100 DUP2 ADD MLOAD PUSH1 0x7 DUP6 ADD SSTORE ADD MLOAD SWAP2 ADD SSTORE PUSH1 0x3 SLOAD PUSH1 0x0 NOT DUP2 ADD SWAP1 DUP2 GT PUSH2 0x458 JUMPI PUSH1 0x40 MLOAD SWAP1 PUSH2 0x424 DUP3 PUSH1 0x4 CALLDATALOAD PUSH2 0x195F JUMP JUMPDEST CALLVALUE PUSH1 0x20 DUP4 ADD MSTORE PUSH32 0xB4421DCEDF6429DC519CEEB2CA0730A119B29407BF0F574238CF66D08F47AD2A PUSH1 0x40 CALLER SWAP4 LOG3 PUSH1 0x1 PUSH1 0x2 SSTORE DUP1 RETURN JUMPDEST PUSH4 0x4E487B71 PUSH1 0xE0 SHL DUP3 MSTORE PUSH1 0x11 PUSH1 0x4 MSTORE PUSH1 0x24 DUP3 REVERT JUMPDEST ADD MLOAD SWAP1 POP CODESIZE DUP1 PUSH2 0x3AC JUMP JUMPDEST SWAP1 PUSH1 0x4 DUP6 ADD DUP7 MSTORE PUSH1 0x20 DUP7 KECCAK256 SWAP2 DUP7 JUMPDEST PUSH1 0x1F NOT DUP6 AND DUP2 LT PUSH2 0x4D2 JUMPI POP SWAP3 PUSH1 0x8 SWAP5 SWAP3 PUSH1 0x1 SWAP3 PUSH2 0x120 SWAP6 DUP4 PUSH1 0x1F NOT DUP2 AND LT PUSH2 0x4B9 JUMPI JUMPDEST POP POP POP DUP2 SHL ADD PUSH1 0x4 DUP6 ADD SSTORE PUSH2 0x3C4 JUMP JUMPDEST ADD MLOAD PUSH1 0x0 NOT PUSH1 0xF8 DUP5 PUSH1 0x3 SHL AND SHR NOT AND SWAP1 SSTORE CODESIZE DUP1 DUP1 PUSH2 0x4A9 JUMP JUMPDEST SWAP2 SWAP3 PUSH1 0x20 PUSH1 0x1 DUP2 SWAP3 DUP7 DUP6 ADD MLOAD DUP2 SSTORE ADD SWAP5 ADD SWAP3 ADD PUSH2 0x485 JUMP JUMPDEST PUSH1 0x4 DUP6 ADD DUP7 MSTORE PUSH1 0x20 DUP7 KECCAK256 PUSH1 0x1F DUP5 ADD PUSH1 0x5 SHR DUP2 ADD PUSH1 0x20 DUP6 LT PUSH2 0x527 JUMPI JUMPDEST PUSH1 0x1F DUP4 ADD PUSH1 0x5 SHR DUP3 ADD DUP2 LT PUSH2 0x51C JUMPI POP POP PUSH2 0x38C JUMP JUMPDEST DUP8 DUP2 SSTORE PUSH1 0x1 ADD PUSH2 0x506 JUMP JUMPDEST POP DUP1 PUSH2 0x506 JUMP JUMPDEST PUSH4 0x4E487B71 PUSH1 0xE0 SHL DUP6 MSTORE PUSH1 0x41 PUSH1 0x4 MSTORE PUSH1 0x24 DUP6 REVERT JUMPDEST ADD MLOAD SWAP1 POP CODESIZE DUP1 PUSH2 0x347 JUMP JUMPDEST PUSH1 0x3 DUP5 ADD DUP6 MSTORE PUSH1 0x20 DUP6 KECCAK256 SWAP1 DUP6 JUMPDEST PUSH1 0x1F NOT DUP5 AND DUP2 LT PUSH2 0x5A1 JUMPI POP PUSH1 0x1 SWAP4 SWAP5 SWAP6 SWAP7 DUP4 PUSH1 0x1F NOT DUP2 AND LT PUSH2 0x588 JUMPI JUMPDEST POP POP POP DUP2 SHL ADD PUSH1 0x3 DUP4 ADD SSTORE PUSH2 0x35F JUMP JUMPDEST ADD MLOAD PUSH1 0x0 NOT PUSH1 0xF8 DUP5 PUSH1 0x3 SHL AND SHR NOT AND SWAP1 SSTORE CODESIZE DUP1 DUP1 PUSH2 0x578 JUMP JUMPDEST SWAP1 SWAP2 PUSH1 0x20 PUSH1 0x1 DUP2 SWAP3 DUP6 DUP12 ADD MLOAD DUP2 SSTORE ADD SWAP4 ADD SWAP2 ADD PUSH2 0x55A JUMP JUMPDEST PUSH1 0x3 DUP5 ADD DUP6 MSTORE PUSH1 0x20 DUP6 KECCAK256 PUSH1 0x1F DUP4 ADD PUSH1 0x5 SHR DUP2 ADD PUSH1 0x20 DUP5 LT PUSH2 0x5F6 JUMPI JUMPDEST PUSH1 0x1F DUP4 ADD PUSH1 0x5 SHR DUP3 ADD DUP2 LT PUSH2 0x5EB JUMPI POP POP PUSH2 0x32D JUMP JUMPDEST DUP7 DUP2 SSTORE PUSH1 0x1 ADD PUSH2 0x5D5 JUMP JUMPDEST POP DUP1 PUSH2 0x5D5 JUMP JUMPDEST PUSH4 0x4E487B71 PUSH1 0xE0 SHL DUP5 MSTORE PUSH1 0x41 PUSH1 0x4 MSTORE PUSH1 0x24 DUP5 REVERT JUMPDEST PUSH4 0x4E487B71 PUSH1 0xE0 SHL DUP7 MSTORE PUSH1 0x21 PUSH1 0x4 MSTORE PUSH1 0x24 DUP7 REVERT JUMPDEST PUSH4 0x4E487B71 PUSH1 0xE0 SHL DUP5 MSTORE PUSH1 0x21 PUSH1 0x4 MSTORE PUSH1 0x24 DUP5 REVERT JUMPDEST PUSH4 0x4E487B71 PUSH1 0xE0 SHL DUP3 MSTORE PUSH1 0x4 DUP3 SWAP1 MSTORE PUSH1 0x24 DUP3 REVERT JUMPDEST PUSH4 0x4E487B71 PUSH1 0xE0 SHL DUP3 MSTORE PUSH1 0x41 PUSH1 0x4 MSTORE PUSH1 0x24 DUP3 REVERT JUMPDEST PUSH1 0x40 MLOAD PUSH3 0x461BCD PUSH1 0xE5 SHL DUP2 MSTORE PUSH1 0x20 PUSH1 0x4 DUP3 ADD MSTORE PUSH1 0x12 PUSH1 0x24 DUP3 ADD MSTORE PUSH18 0x11185D18481A185CDA081C995C5D5A5C9959 PUSH1 0x72 SHL PUSH1 0x44 DUP3 ADD MSTORE PUSH1 0x64 SWAP1 REVERT JUMPDEST PUSH1 0x40 MLOAD PUSH3 0x461BCD PUSH1 0xE5 SHL DUP2 MSTORE PUSH1 0x20 PUSH1 0x4 DUP3 ADD MSTORE PUSH1 0x13 PUSH1 0x24 DUP3 ADD MSTORE PUSH19 0x135BD9195B081A185CDA081C995C5D5A5C9959 PUSH1 0x6A SHL PUSH1 0x44 DUP3 ADD MSTORE PUSH1 0x64 SWAP1 REVERT JUMPDEST PUSH1 0x40 MLOAD PUSH3 0x461BCD PUSH1 0xE5 SHL DUP2 MSTORE PUSH1 0x20 PUSH1 0x4 DUP3 ADD MSTORE PUSH1 0xF PUSH1 0x24 DUP3 ADD MSTORE PUSH15 0x14995DD85C99081C995C5D5A5C9959 PUSH1 0x8A SHL PUSH1 0x44 DUP3 ADD MSTORE PUSH1 0x64 SWAP1 REVERT JUMPDEST POP DUP1 REVERT JUMPDEST POP CALLVALUE PUSH2 0x1A7 JUMPI PUSH1 0x20 SWAP1 DUP2 PUSH1 0x3 NOT CALLDATASIZE ADD SLT PUSH2 0x1A7 JUMPI PUSH1 0x4 CALLDATALOAD PUSH1 0x2 SWAP1 PUSH2 0x738 DUP3 DUP1 SLOAD EQ ISZERO PUSH2 0x1A1C JUMP JUMPDEST DUP2 DUP1 SSTORE PUSH2 0x748 PUSH1 0x3 SLOAD DUP3 LT PUSH2 0x1AC5 JUMP JUMPDEST PUSH2 0x751 DUP2 PUSH2 0x17D9 JUMP JUMPDEST POP DUP3 DUP2 ADD SWAP1 DUP2 SLOAD SWAP2 PUSH1 0xFF DUP4 PUSH1 0x8 SHR AND PUSH1 0x6 DUP2 LT ISZERO PUSH2 0x8E8 JUMPI PUSH2 0x8B1 JUMPI DUP2 SLOAD PUSH1 0x1 PUSH1 0x1 PUSH1 0xA0 SHL SUB AND CALLER EQ PUSH2 0x86C JUMPI PUSH1 0x1 DUP3 ADD SLOAD PUSH1 0x1 SHR SWAP3 CALLER DUP8 MSTORE PUSH1 0x4 DUP9 MSTORE DUP4 PUSH1 0x40 DUP9 KECCAK256 SLOAD LT PUSH2 0x813 JUMPI SWAP2 PUSH1 0x1 SWAP7 SWAP8 SWAP2 PUSH2 0x100 PUSH1 0x4 SWAP5 PUSH1 0x5 DUP5 ADD CALLER PUSH12 0xFFFFFFFFFFFFFFFFFFFFFFFF PUSH1 0xA0 SHL DUP3 SLOAD AND OR SWAP1 SSTORE PUSH2 0xFF00 NOT AND OR SWAP1 SSTORE DUP4 PUSH1 0x6 DUP3 ADD SSTORE PUSH1 0x8 TIMESTAMP SWAP2 ADD SSTORE CALLER DUP8 MSTORE MSTORE PUSH2 0x7E7 PUSH1 0x40 DUP7 KECCAK256 SWAP2 DUP3 SLOAD PUSH2 0x1A7C JUMP JUMPDEST SWAP1 SSTORE CALLER SWAP1 PUSH32 0x9DB473C30C252A39EF7ECE5CFAC60EE27263AF44A5D50EB607BC4522D02069C4 DUP6 DUP1 LOG3 SSTORE DUP1 RETURN JUMPDEST PUSH1 0x40 MLOAD PUSH3 0x461BCD PUSH1 0xE5 SHL DUP2 MSTORE PUSH1 0x4 DUP2 ADD DUP10 SWAP1 MSTORE PUSH1 0x2B PUSH1 0x24 DUP3 ADD MSTORE PUSH32 0x496E73756666696369656E74207374616B652028353025206F66207265776172 PUSH1 0x44 DUP3 ADD MSTORE PUSH11 0x6420726571756972656429 PUSH1 0xA8 SHL PUSH1 0x64 DUP3 ADD MSTORE PUSH1 0x84 SWAP1 REVERT JUMPDEST PUSH1 0x40 MLOAD PUSH3 0x461BCD PUSH1 0xE5 SHL DUP2 MSTORE PUSH1 0x4 DUP2 ADD DUP9 SWAP1 MSTORE PUSH1 0x1E PUSH1 0x24 DUP3 ADD MSTORE PUSH32 0x5265717565737465722063616E6E6F7420636C61696D206F776E206A6F620000 PUSH1 0x44 DUP3 ADD MSTORE PUSH1 0x64 SWAP1 REVERT JUMPDEST PUSH1 0x40 MLOAD PUSH3 0x461BCD PUSH1 0xE5 SHL DUP2 MSTORE PUSH1 0x4 DUP2 ADD DUP9 SWAP1 MSTORE PUSH1 0xF PUSH1 0x24 DUP3 ADD MSTORE PUSH15 0x4A6F62206E6F742070656E64696E67 PUSH1 0x88 SHL PUSH1 0x44 DUP3 ADD MSTORE PUSH1 0x64 SWAP1 REVERT JUMPDEST PUSH4 0x4E487B71 PUSH1 0xE0 SHL DUP8 MSTORE PUSH1 0x21 PUSH1 0x4 MSTORE PUSH1 0x24 DUP8 REVERT JUMPDEST POP CALLVALUE PUSH2 0x1A7 JUMPI PUSH1 0x20 CALLDATASIZE PUSH1 0x3 NOT ADD SLT PUSH2 0x1A7 JUMPI PUSH1 0x20 PUSH2 0x931 PUSH2 0x92B PUSH1 0x4 CALLDATALOAD PUSH2 0x926 PUSH1 0x3 SLOAD DUP3 LT PUSH2 0x1AC5 JUMP JUMPDEST PUSH2 0x17D9 JUMP JUMPDEST POP PUSH2 0x1BD5 JUMP JUMPDEST PUSH1 0x40 MLOAD SWAP1 ISZERO ISZERO DUP2 MSTORE RETURN JUMPDEST POP CALLVALUE PUSH2 0x1A7 JUMPI PUSH1 0x20 CALLDATASIZE PUSH1 0x3 NOT ADD SLT PUSH2 0x1A7 JUMPI PUSH1 0x1 SLOAD PUSH1 0x1 PUSH1 0x1 PUSH1 0xA0 SHL SUB SWAP1 PUSH1 0x4 CALLDATALOAD SWAP1 PUSH2 0x96A SWAP1 DUP4 AND CALLER EQ PUSH2 0x1B83 JUMP JUMPDEST PUSH1 0x2 SWAP1 PUSH2 0x97A DUP3 DUP1 SLOAD EQ ISZERO PUSH2 0x1A1C JUMP JUMPDEST DUP2 DUP1 SSTORE PUSH2 0x98A PUSH1 0x3 SLOAD DUP3 LT PUSH2 0x1AC5 JUMP JUMPDEST PUSH2 0x993 DUP2 PUSH2 0x17D9 JUMP JUMPDEST POP SWAP3 DUP3 DUP5 ADD SWAP1 DUP2 SLOAD SWAP5 PUSH1 0xFF DUP7 PUSH1 0x8 SHR AND PUSH1 0x6 DUP2 LT ISZERO PUSH2 0xA62 JUMPI PUSH1 0x1 SUB PUSH2 0xA1D JUMPI PUSH1 0x1 SWAP6 PUSH2 0xA12 DUP9 DUP1 DUP1 DUP1 DUP7 DUP9 PUSH32 0x35BADE04563D8D0B18E6CDC95A7A0EB5B8D9999AC05E48FBEF04A65B6CD5CA13 SWAP10 PUSH1 0x5 PUSH1 0x20 SWAP11 ADD SLOAD AND SWAP11 PUSH2 0x400 PUSH1 0x6 DUP5 ADD SLOAD SWAP10 PUSH2 0xFF00 NOT AND OR SWAP1 SSTORE DUP14 DUP3 ADD SLOAD SWAP2 SLOAD AND GAS CALL PUSH2 0xA0C PUSH2 0x1A89 JUMP JUMPDEST POP PUSH2 0x1B02 JUMP JUMPDEST PUSH1 0x40 MLOAD SWAP1 DUP2 MSTORE LOG3 SSTORE DUP1 RETURN JUMPDEST PUSH1 0x40 MLOAD PUSH3 0x461BCD PUSH1 0xE5 SHL DUP2 MSTORE PUSH1 0x20 PUSH1 0x4 DUP3 ADD MSTORE PUSH1 0x1E PUSH1 0x24 DUP3 ADD MSTORE PUSH32 0x43616E206F6E6C7920736C6173682070726F63657373696E67206A6F62730000 PUSH1 0x44 DUP3 ADD MSTORE PUSH1 0x64 SWAP1 REVERT JUMPDEST PUSH4 0x4E487B71 PUSH1 0xE0 SHL DUP9 MSTORE PUSH1 0x21 PUSH1 0x4 MSTORE PUSH1 0x24 DUP9 REVERT JUMPDEST POP CALLVALUE PUSH2 0x1A7 JUMPI PUSH1 0x20 CALLDATASIZE PUSH1 0x3 NOT ADD SLT PUSH2 0x1A7 JUMPI PUSH2 0xAE4 SWAP1 PUSH1 0x4 CALLDATALOAD SWAP1 PUSH2 0x120 PUSH1 0x40 MLOAD PUSH2 0xA9F DUP2 PUSH2 0x1864 JUMP JUMPDEST DUP3 DUP2 MSTORE DUP3 PUSH1 0x20 DUP3 ADD MSTORE DUP3 PUSH1 0x40 DUP3 ADD MSTORE DUP3 PUSH1 0x60 DUP3 ADD MSTORE PUSH1 0x60 PUSH1 0x80 DUP3 ADD MSTORE PUSH1 0x60 PUSH1 0xA0 DUP3 ADD MSTORE DUP3 PUSH1 0xC0 DUP3 ADD MSTORE DUP3 PUSH1 0xE0 DUP3 ADD MSTORE DUP3 PUSH2 0x100 DUP3 ADD MSTORE ADD MSTORE PUSH2 0x926 PUSH1 0x3 SLOAD DUP3 LT PUSH2 0x1AC5 JUMP JUMPDEST POP PUSH1 0x40 MLOAD SWAP1 PUSH2 0xAF2 DUP3 PUSH2 0x1864 JUMP JUMPDEST DUP1 SLOAD PUSH1 0x1 PUSH1 0x1 PUSH1 0xA0 SHL SUB AND DUP3 MSTORE PUSH1 0x1 DUP2 ADD SLOAD PUSH1 0x20 DUP4 ADD MSTORE PUSH1 0x2 DUP2 ADD SLOAD PUSH1 0xFF SWAP1 PUSH2 0xB20 DUP2 DUP4 AND PUSH1 0x40 DUP7 ADD PUSH2 0x1AB9 JUMP JUMPDEST PUSH1 0x8 SHR AND SWAP1 PUSH1 0x6 DUP3 LT ISZERO PUSH2 0xC38 JUMPI PUSH1 0x8 SWAP2 PUSH1 0x60 DUP5 ADD MSTORE PUSH2 0xB42 PUSH1 0x3 DUP3 ADD PUSH2 0x18B9 JUMP JUMPDEST PUSH1 0x80 DUP5 ADD MSTORE PUSH2 0xB53 PUSH1 0x4 DUP3 ADD PUSH2 0x18B9 JUMP JUMPDEST PUSH1 0xA0 DUP5 ADD MSTORE PUSH1 0x1 DUP1 PUSH1 0xA0 SHL SUB PUSH1 0x5 DUP3 ADD SLOAD AND PUSH1 0xC0 DUP5 ADD MSTORE PUSH1 0x6 DUP2 ADD SLOAD PUSH1 0xE0 DUP5 ADD MSTORE PUSH1 0x7 DUP2 ADD SLOAD PUSH2 0x100 DUP5 ADD MSTORE ADD SLOAD PUSH2 0x120 DUP3 ADD MSTORE PUSH1 0x40 MLOAD DUP1 SWAP2 PUSH1 0x20 DUP3 MSTORE PUSH1 0x1 DUP1 PUSH1 0xA0 SHL SUB DUP2 MLOAD AND PUSH1 0x20 DUP4 ADD MSTORE PUSH1 0x20 DUP2 ADD MLOAD PUSH1 0x40 DUP4 ADD MSTORE PUSH2 0xBBB PUSH1 0x40 DUP3 ADD MLOAD PUSH1 0x60 DUP5 ADD SWAP1 PUSH2 0x195F JUMP JUMPDEST PUSH2 0xBCD PUSH1 0x60 DUP3 ADD MLOAD PUSH1 0x80 DUP5 ADD SWAP1 PUSH2 0x196C JUMP JUMPDEST PUSH1 0x80 DUP2 ADD MLOAD PUSH2 0x120 PUSH2 0xC06 PUSH2 0xBF0 PUSH2 0x140 SWAP4 DUP5 PUSH1 0xA0 DUP9 ADD MSTORE PUSH2 0x160 DUP8 ADD SWAP1 PUSH2 0x1979 JUMP JUMPDEST PUSH1 0xA0 DUP6 ADD MLOAD DUP7 DUP3 SUB PUSH1 0x1F NOT ADD PUSH1 0xC0 DUP9 ADD MSTORE PUSH2 0x1979 JUMP JUMPDEST SWAP3 PUSH1 0x1 DUP1 PUSH1 0xA0 SHL SUB PUSH1 0xC0 DUP3 ADD MLOAD AND PUSH1 0xE0 DUP7 ADD MSTORE PUSH1 0xE0 DUP2 ADD MLOAD PUSH2 0x100 DUP7 ADD MSTORE PUSH2 0x100 DUP2 ADD MLOAD DUP3 DUP7 ADD MSTORE ADD MLOAD SWAP1 DUP4 ADD MSTORE SUB SWAP1 RETURN JUMPDEST PUSH4 0x4E487B71 PUSH1 0xE0 SHL PUSH1 0x0 MSTORE PUSH1 0x21 PUSH1 0x4 MSTORE PUSH1 0x24 PUSH1 0x0 REVERT JUMPDEST POP CALLVALUE PUSH2 0x1A7 JUMPI PUSH1 0x20 CALLDATASIZE PUSH1 0x3 NOT ADD SLT PUSH2 0x1A7 JUMPI PUSH1 0x4 CALLDATALOAD PUSH1 0x2 PUSH2 0xC72 DUP2 DUP1 SLOAD EQ ISZERO PUSH2 0x1A1C JUMP JUMPDEST DUP1 DUP1 SSTORE PUSH2 0xC82 PUSH1 0x3 SLOAD DUP4 LT PUSH2 0x1AC5 JUMP JUMPDEST PUSH2 0xC8B DUP3 PUSH2 0x17D9 JUMP JUMPDEST POP SWAP2 DUP2 DUP4 ADD DUP1 SLOAD PUSH1 0xFF DUP2 PUSH1 0x8 SHR AND PUSH1 0x6 DUP2 LT ISZERO PUSH2 0x8E8 JUMPI PUSH1 0x1 SUB PUSH2 0xD81 JUMPI PUSH2 0xCB2 DUP6 PUSH2 0x1BD5 JUMP JUMPDEST ISZERO PUSH2 0xD46 JUMPI PUSH1 0x20 PUSH32 0x35BADE04563D8D0B18E6CDC95A7A0EB5B8D9999AC05E48FBEF04A65B6CD5CA13 SWAP2 PUSH2 0xD15 DUP9 DUP1 DUP1 DUP1 PUSH1 0x1 SWAP12 DUP13 DUP1 PUSH1 0xA0 SHL SUB DUP1 PUSH1 0x5 DUP4 ADD SLOAD AND SWAP11 PUSH2 0x500 PUSH1 0x6 DUP5 ADD SLOAD SWAP10 PUSH2 0xFF00 NOT AND OR SWAP1 SSTORE DUP14 DUP3 ADD SLOAD SWAP2 SLOAD AND GAS CALL PUSH2 0xA0C PUSH2 0x1A89 JUMP JUMPDEST PUSH1 0x40 MLOAD SWAP1 DUP5 DUP7 PUSH32 0x2FF4B096CCEBD1944C1681B8F847B6588AA34A90308EC467BB927E10C0192151 DUP12 DUP1 LOG3 DUP2 MSTORE LOG3 SSTORE DUP1 RETURN JUMPDEST PUSH1 0x40 MLOAD PUSH3 0x461BCD PUSH1 0xE5 SHL DUP2 MSTORE PUSH1 0x20 PUSH1 0x4 DUP3 ADD MSTORE PUSH1 0x13 PUSH1 0x24 DUP3 ADD MSTORE PUSH19 0x129BD8881B9BDD081E595D08195E1C1A5C9959 PUSH1 0x6A SHL PUSH1 0x44 DUP3 ADD MSTORE PUSH1 0x64 SWAP1 REVERT JUMPDEST PUSH1 0x40 MLOAD PUSH3 0x461BCD PUSH1 0xE5 SHL DUP2 MSTORE PUSH1 0x20 PUSH1 0x4 DUP3 ADD MSTORE PUSH1 0x12 PUSH1 0x24 DUP3 ADD MSTORE PUSH18 0x4A6F62206E6F742070726F63657373696E67 PUSH1 0x70 SHL PUSH1 0x44 DUP3 ADD MSTORE PUSH1 0x64 SWAP1 REVERT JUMPDEST POP CALLVALUE PUSH2 0x1A7 JUMPI PUSH2 0xDCA CALLDATASIZE PUSH2 0x174B JUMP JUMPDEST SWAP4 SWAP3 SWAP1 SWAP6 SWAP5 SWAP2 PUSH1 0x2 SWAP5 PUSH2 0xDE0 DUP7 DUP1 SLOAD EQ ISZERO PUSH2 0x1A1C JUMP JUMPDEST DUP6 DUP1 SSTORE PUSH2 0xDF0 PUSH1 0x3 SLOAD DUP6 LT PUSH2 0x1AC5 JUMP JUMPDEST PUSH2 0xDF9 DUP5 PUSH2 0x17D9 JUMP JUMPDEST POP PUSH1 0x5 DUP2 ADD SLOAD SWAP1 SWAP4 PUSH1 0x1 PUSH1 0x1 PUSH1 0xA0 SHL SUB SWAP3 SWAP1 SWAP2 DUP4 AND CALLER SUB PUSH2 0x106A JUMPI DUP8 DUP6 ADD SWAP4 DUP5 SLOAD SWAP4 PUSH1 0xFF DUP6 PUSH1 0x8 SHR AND PUSH1 0x6 DUP2 LT ISZERO PUSH2 0x1056 JUMPI PUSH1 0x1 SUB PUSH2 0x101D JUMPI PUSH2 0xE3B DUP8 PUSH2 0x1BD5 JUMP JUMPDEST PUSH2 0xFE6 JUMPI DUP11 SLOAD AND PUSH1 0x40 MLOAD DUP1 DUP1 SWAP6 DUP2 SWAP5 PUSH4 0xBD205A9 PUSH1 0xE4 SHL DUP4 MSTORE PUSH1 0x4 DUP4 ADD PUSH1 0x40 SWAP1 MSTORE PUSH1 0x44 DUP4 ADD SWAP1 PUSH2 0xE6A SWAP3 PUSH2 0x1B3E JUMP JUMPDEST DUP2 DUP2 SUB PUSH1 0x3 NOT ADD PUSH1 0x24 DUP4 ADD MSTORE PUSH1 0x20 SWAP15 DUP16 SWAP7 PUSH2 0xE85 SWAP3 SWAP2 PUSH2 0x1B62 JUMP JUMPDEST SUB SWAP2 GAS STATICCALL SWAP1 DUP2 ISZERO PUSH2 0xFDB JUMPI DUP9 SWAP2 PUSH2 0xFA1 JUMPI JUMPDEST POP ISZERO PUSH2 0xF69 JUMPI PUSH2 0xFF00 NOT AND PUSH2 0x200 OR SWAP1 SSTORE PUSH1 0x1 DUP2 ADD SLOAD PUSH1 0x6 SWAP1 SWAP2 ADD SLOAD PUSH2 0xEBC SWAP2 PUSH2 0x1A59 JUMP JUMPDEST CALLER DUP6 MSTORE PUSH1 0x5 DUP7 MSTORE PUSH1 0x40 DUP6 KECCAK256 DUP1 SLOAD SWAP1 PUSH1 0x1 DUP3 ADD DUP1 SWAP3 GT PUSH2 0xF55 JUMPI DUP7 DUP1 SWAP4 DUP2 SWAP4 DUP3 SWAP4 SSTORE CALLER GAS CALL PUSH2 0xEE8 PUSH2 0x1A89 JUMP JUMPDEST POP ISZERO PUSH2 0xF20 JUMPI PUSH32 0xFD54BD364FA9E67F17B091AEFE930932C09FE7651CF5AD02C71A418F3341444 PUSH1 0x1 SWAP5 SWAP6 PUSH1 0x40 MLOAD SWAP4 DUP5 MSTORE CALLER SWAP4 LOG3 SSTORE DUP1 RETURN JUMPDEST PUSH1 0x40 MLOAD PUSH3 0x461BCD PUSH1 0xE5 SHL DUP2 MSTORE PUSH1 0x4 DUP2 ADD DUP7 SWAP1 MSTORE PUSH1 0xD PUSH1 0x24 DUP3 ADD MSTORE PUSH13 0x14185E5BDD5D0819985A5B1959 PUSH1 0x9A SHL PUSH1 0x44 DUP3 ADD MSTORE PUSH1 0x64 SWAP1 REVERT JUMPDEST PUSH4 0x4E487B71 PUSH1 0xE0 SHL DUP8 MSTORE PUSH1 0x11 PUSH1 0x4 MSTORE PUSH1 0x24 DUP8 REVERT JUMPDEST PUSH1 0x40 MLOAD PUSH3 0x461BCD PUSH1 0xE5 SHL DUP2 MSTORE PUSH1 0x4 DUP2 ADD DUP10 SWAP1 MSTORE PUSH1 0x10 PUSH1 0x24 DUP3 ADD MSTORE PUSH16 0x24B73B30B634B2102D2590383937B7B3 PUSH1 0x81 SHL PUSH1 0x44 DUP3 ADD MSTORE PUSH1 0x64 SWAP1 REVERT JUMPDEST SWAP1 POP DUP9 DUP2 DUP2 RETURNDATASIZE DUP4 GT PUSH2 0xFD4 JUMPI JUMPDEST PUSH2 0xFB8 DUP2 DUP4 PUSH2 0x1897 JUMP JUMPDEST DUP2 ADD SUB SLT PUSH2 0xFD0 JUMPI MLOAD DUP1 ISZERO ISZERO DUP2 SUB PUSH2 0xFD0 JUMPI CODESIZE PUSH2 0xE97 JUMP JUMPDEST DUP8 DUP1 REVERT JUMPDEST POP RETURNDATASIZE PUSH2 0xFAE JUMP JUMPDEST PUSH1 0x40 MLOAD RETURNDATASIZE DUP11 DUP3 RETURNDATACOPY RETURNDATASIZE SWAP1 REVERT JUMPDEST PUSH1 0x40 MLOAD PUSH3 0x461BCD PUSH1 0xE5 SHL DUP2 MSTORE PUSH1 0x20 PUSH1 0x4 DUP3 ADD MSTORE PUSH1 0xF PUSH1 0x24 DUP3 ADD MSTORE PUSH15 0x129BD8881A185CC8195E1C1A5C9959 PUSH1 0x8A SHL PUSH1 0x44 DUP3 ADD MSTORE PUSH1 0x64 SWAP1 REVERT JUMPDEST PUSH1 0x40 MLOAD PUSH3 0x461BCD PUSH1 0xE5 SHL DUP2 MSTORE PUSH1 0x20 PUSH1 0x4 DUP3 ADD MSTORE PUSH1 0x11 PUSH1 0x24 DUP3 ADD MSTORE PUSH17 0x4E6F7420696E2070726F63657373696E67 PUSH1 0x78 SHL PUSH1 0x44 DUP3 ADD MSTORE PUSH1 0x64 SWAP1 REVERT JUMPDEST PUSH4 0x4E487B71 PUSH1 0xE0 SHL DUP13 MSTORE PUSH1 0x21 PUSH1 0x4 MSTORE PUSH1 0x24 DUP13 REVERT JUMPDEST PUSH1 0x40 MLOAD PUSH3 0x461BCD PUSH1 0xE5 SHL DUP2 MSTORE PUSH1 0x20 PUSH1 0x4 DUP3 ADD MSTORE PUSH1 0x15 PUSH1 0x24 DUP3 ADD MSTORE PUSH21 0x2737BA1030B9B9B4B3B732B210383937BB34B232B9 PUSH1 0x59 SHL PUSH1 0x44 DUP3 ADD MSTORE PUSH1 0x64 SWAP1 REVERT JUMPDEST POP CALLVALUE PUSH2 0x1A7 JUMPI PUSH1 0x20 CALLDATASIZE PUSH1 0x3 NOT ADD SLT PUSH2 0x1A7 JUMPI PUSH1 0x4 CALLDATALOAD PUSH1 0x1 PUSH1 0x1 PUSH1 0xA0 SHL SUB DUP2 AND SWAP1 DUP2 SWAP1 SUB PUSH2 0x70D JUMPI DUP2 PUSH1 0x40 SWAP2 PUSH1 0x20 SWAP4 MSTORE PUSH1 0x4 DUP4 MSTORE KECCAK256 SLOAD PUSH1 0x40 MLOAD SWAP1 DUP2 MSTORE RETURN JUMPDEST POP CALLVALUE PUSH2 0x1A7 JUMPI DUP1 PUSH1 0x3 NOT CALLDATASIZE ADD SLT PUSH2 0x1A7 JUMPI PUSH1 0x20 PUSH1 0x3 SLOAD PUSH1 0x40 MLOAD SWAP1 DUP2 MSTORE RETURN JUMPDEST POP CALLVALUE PUSH2 0x1A7 JUMPI PUSH1 0x20 CALLDATASIZE PUSH1 0x3 NOT ADD SLT PUSH2 0x1A7 JUMPI PUSH1 0x4 CALLDATALOAD PUSH1 0x1 PUSH1 0x1 PUSH1 0xA0 SHL SUB DUP2 DUP2 AND SWAP2 DUP3 SWAP1 SUB PUSH2 0x1A3 JUMPI PUSH2 0x1139 SWAP1 PUSH1 0x1 SLOAD AND CALLER EQ PUSH2 0x1B83 JUMP JUMPDEST DUP1 ISZERO PUSH2 0x1151 JUMPI DUP2 SLOAD PUSH1 0x1 PUSH1 0x1 PUSH1 0xA0 SHL SUB NOT AND OR DUP2 SSTORE DUP1 RETURN JUMPDEST PUSH1 0x40 MLOAD PUSH3 0x461BCD PUSH1 0xE5 SHL DUP2 MSTORE PUSH1 0x20 PUSH1 0x4 DUP3 ADD MSTORE PUSH1 0x18 PUSH1 0x24 DUP3 ADD MSTORE PUSH32 0x496E76616C696420766572696669657220616464726573730000000000000000 PUSH1 0x44 DUP3 ADD MSTORE PUSH1 0x64 SWAP1 REVERT JUMPDEST POP CALLVALUE PUSH2 0x1A7 JUMPI DUP1 PUSH1 0x3 NOT CALLDATASIZE ADD SLT PUSH2 0x1A7 JUMPI PUSH1 0x1 SLOAD PUSH1 0x40 MLOAD PUSH1 0x1 PUSH1 0x1 PUSH1 0xA0 SHL SUB SWAP1 SWAP2 AND DUP2 MSTORE PUSH1 0x20 SWAP1 RETURN JUMPDEST POP CALLVALUE PUSH2 0x1A7 JUMPI DUP1 PUSH1 0x3 NOT CALLDATASIZE ADD SLT PUSH2 0x1A7 JUMPI PUSH1 0x20 PUSH1 0x40 MLOAD PUSH3 0x15180 DUP2 MSTORE RETURN JUMPDEST POP CALLVALUE PUSH2 0x1A7 JUMPI DUP1 PUSH1 0x3 NOT CALLDATASIZE ADD SLT PUSH2 0x1A7 JUMPI PUSH1 0x20 PUSH1 0x40 MLOAD PUSH2 0xE10 DUP2 MSTORE RETURN JUMPDEST POP CALLVALUE PUSH2 0x1A7 JUMPI DUP1 PUSH1 0x3 NOT CALLDATASIZE ADD SLT PUSH2 0x1A7 JUMPI SLOAD PUSH1 0x40 MLOAD PUSH1 0x1 PUSH1 0x1 PUSH1 0xA0 SHL SUB SWAP1 SWAP2 AND DUP2 MSTORE PUSH1 0x20 SWAP1 RETURN JUMPDEST POP CALLVALUE PUSH2 0x1A7 JUMPI PUSH1 0x20 CALLDATASIZE PUSH1 0x3 NOT ADD SLT PUSH2 0x1A7 JUMPI PUSH1 0x4 CALLDATALOAD SWAP1 PUSH1 0x2 DUP3 LT ISZERO PUSH2 0x1A7 JUMPI PUSH1 0x20 PUSH2 0x124B DUP4 PUSH2 0x1BBB JUMP JUMPDEST PUSH1 0x40 MLOAD SWAP1 DUP2 MSTORE RETURN JUMPDEST POP CALLVALUE PUSH2 0x1A7 JUMPI PUSH1 0x20 DUP1 PUSH1 0x3 NOT CALLDATASIZE ADD SLT PUSH2 0x70D JUMPI PUSH1 0x4 CALLDATALOAD SWAP1 PUSH2 0x1278 PUSH1 0x2 DUP1 SLOAD EQ ISZERO PUSH2 0x1A1C JUMP JUMPDEST PUSH1 0x2 DUP1 SSTORE DUP2 ISZERO PUSH2 0x136F JUMPI CALLER DUP4 MSTORE PUSH1 0x4 DUP2 MSTORE DUP2 PUSH1 0x40 DUP5 KECCAK256 SLOAD LT PUSH2 0x132B JUMPI CALLER DUP4 MSTORE PUSH1 0x4 DUP2 MSTORE PUSH1 0x40 DUP4 KECCAK256 PUSH2 0x12AA DUP4 DUP3 SLOAD PUSH2 0x1A7C JUMP JUMPDEST SWAP1 SSTORE DUP3 DUP1 DUP1 DUP1 DUP6 CALLER GAS CALL PUSH2 0x12BC PUSH2 0x1A89 JUMP JUMPDEST POP ISZERO PUSH2 0x12F5 JUMPI PUSH32 0x8108595EB6BAD3ACEFA9DA467D90CC2217686D5C5AC85460F8B7849C840645FC SWAP1 PUSH1 0x40 MLOAD SWAP3 DUP4 MSTORE CALLER SWAP3 LOG2 PUSH1 0x1 PUSH1 0x2 SSTORE DUP1 RETURN JUMPDEST PUSH1 0x64 SWAP1 PUSH1 0x40 MLOAD SWAP1 PUSH3 0x461BCD PUSH1 0xE5 SHL DUP3 MSTORE PUSH1 0x4 DUP3 ADD MSTORE PUSH1 0xF PUSH1 0x24 DUP3 ADD MSTORE PUSH15 0x151C985B9CD9995C8819985A5B1959 PUSH1 0x8A SHL PUSH1 0x44 DUP3 ADD MSTORE REVERT JUMPDEST PUSH1 0x64 SWAP1 PUSH1 0x40 MLOAD SWAP1 PUSH3 0x461BCD PUSH1 0xE5 SHL DUP3 MSTORE PUSH1 0x4 DUP3 ADD MSTORE PUSH1 0x1A PUSH1 0x24 DUP3 ADD MSTORE PUSH32 0x496E73756666696369656E74207374616B652062616C616E6365000000000000 PUSH1 0x44 DUP3 ADD MSTORE REVERT JUMPDEST PUSH1 0x64 SWAP1 PUSH1 0x40 MLOAD SWAP1 PUSH3 0x461BCD PUSH1 0xE5 SHL DUP3 MSTORE PUSH1 0x4 DUP3 ADD MSTORE PUSH1 0x1D PUSH1 0x24 DUP3 ADD MSTORE PUSH32 0x4D757374207769746864726177206E6F6E2D7A65726F20616D6F756E74000000 PUSH1 0x44 DUP3 ADD MSTORE REVERT JUMPDEST POP CALLVALUE PUSH2 0x1A7 JUMPI PUSH1 0x20 CALLDATASIZE PUSH1 0x3 NOT ADD SLT PUSH2 0x1A7 JUMPI PUSH1 0x4 CALLDATALOAD PUSH1 0x2 PUSH2 0x13D7 DUP2 DUP1 SLOAD EQ ISZERO PUSH2 0x1A1C JUMP JUMPDEST DUP1 DUP1 SSTORE PUSH2 0x13E7 PUSH1 0x3 SLOAD DUP4 LT PUSH2 0x1AC5 JUMP JUMPDEST PUSH2 0x13F0 DUP3 PUSH2 0x17D9 JUMP JUMPDEST POP DUP1 SLOAD SWAP1 SWAP3 SWAP1 PUSH1 0x1 PUSH1 0x1 PUSH1 0xA0 SHL SUB AND CALLER SUB PUSH2 0x14A6 JUMPI DUP2 DUP4 ADD SWAP3 DUP4 SLOAD SWAP4 PUSH1 0xFF DUP6 PUSH1 0x8 SHR AND PUSH1 0x6 DUP2 LT ISZERO PUSH2 0x8E8 JUMPI PUSH2 0x146F JUMPI DUP6 DUP1 DUP1 PUSH1 0x1 PUSH2 0x1445 SWAP6 DUP3 SWAP6 PUSH2 0x300 DUP4 SWAP12 PUSH2 0xFF00 NOT AND OR SWAP1 SSTORE ADD SLOAD CALLER GAS CALL PUSH2 0xA0C PUSH2 0x1A89 JUMP JUMPDEST CALLER SWAP1 PUSH32 0xF1AB0865975DAD5C69AE8E4BAAF13114C875728AFA7CC86368534C22A631D0B0 DUP6 DUP1 LOG3 SSTORE DUP1 RETURN JUMPDEST PUSH1 0x40 MLOAD PUSH3 0x461BCD PUSH1 0xE5 SHL DUP2 MSTORE PUSH1 0x20 PUSH1 0x4 DUP3 ADD MSTORE PUSH1 0xF PUSH1 0x24 DUP3 ADD MSTORE PUSH15 0x4E6F742063616E63656C6C61626C65 PUSH1 0x88 SHL PUSH1 0x44 DUP3 ADD MSTORE PUSH1 0x64 SWAP1 REVERT JUMPDEST PUSH1 0x40 MLOAD PUSH3 0x461BCD PUSH1 0xE5 SHL DUP2 MSTORE PUSH1 0x20 PUSH1 0x4 DUP3 ADD MSTORE PUSH1 0xD PUSH1 0x24 DUP3 ADD MSTORE PUSH13 0x2737BA103932B8BAB2B9BA32B9 PUSH1 0x99 SHL PUSH1 0x44 DUP3 ADD MSTORE PUSH1 0x64 SWAP1 REVERT JUMPDEST POP CALLVALUE PUSH2 0x1A7 JUMPI PUSH1 0x20 CALLDATASIZE PUSH1 0x3 NOT ADD SLT PUSH2 0x1A7 JUMPI PUSH1 0x4 CALLDATALOAD PUSH1 0x3 SLOAD DUP2 LT ISZERO PUSH2 0x70D JUMPI PUSH2 0x1503 SWAP1 PUSH2 0x17D9 JUMP JUMPDEST POP DUP1 SLOAD PUSH1 0x1 DUP3 ADD SLOAD PUSH1 0x2 DUP4 ADD SLOAD SWAP1 SWAP3 PUSH1 0x1 PUSH1 0x1 PUSH1 0xA0 SHL SUB SWAP3 DUP4 AND SWAP3 SWAP2 SWAP1 PUSH2 0x152C PUSH1 0x3 DUP3 ADD PUSH2 0x18B9 JUMP JUMPDEST PUSH2 0x15A6 PUSH2 0x153B PUSH1 0x4 DUP5 ADD PUSH2 0x18B9 JUMP JUMPDEST SWAP5 PUSH1 0x5 DUP5 ADD SLOAD AND SWAP5 PUSH2 0x1598 PUSH1 0x6 DUP6 ADD SLOAD SWAP4 PUSH2 0x1587 PUSH1 0x8 PUSH1 0x7 DUP9 ADD SLOAD SWAP8 ADD SLOAD SWAP8 PUSH1 0x40 MLOAD SWAP12 DUP13 SWAP12 DUP13 MSTORE PUSH1 0x20 DUP13 ADD MSTORE PUSH2 0x1577 PUSH1 0x40 DUP13 ADD PUSH1 0xFF DUP4 AND PUSH2 0x195F JUMP JUMPDEST PUSH1 0xFF PUSH1 0x60 DUP13 ADD SWAP2 PUSH1 0x8 SHR AND PUSH2 0x196C JUMP JUMPDEST PUSH2 0x140 DUP1 PUSH1 0x80 DUP12 ADD MSTORE DUP10 ADD SWAP1 PUSH2 0x1979 JUMP JUMPDEST SWAP1 DUP8 DUP3 SUB PUSH1 0xA0 DUP10 ADD MSTORE PUSH2 0x1979 JUMP JUMPDEST SWAP4 PUSH1 0xC0 DUP7 ADD MSTORE PUSH1 0xE0 DUP6 ADD MSTORE PUSH2 0x100 DUP5 ADD MSTORE PUSH2 0x120 DUP4 ADD MSTORE SUB SWAP1 RETURN JUMPDEST POP CALLVALUE PUSH2 0x1A7 JUMPI DUP1 PUSH2 0x15D1 CALLDATASIZE PUSH2 0x174B JUMP JUMPDEST SWAP6 SWAP5 SWAP3 SWAP2 SWAP6 ADDRESS EXTCODESIZE ISZERO PUSH2 0x1657 JUMPI PUSH2 0x1611 PUSH2 0x1623 SWAP4 PUSH1 0x40 MLOAD SWAP9 DUP10 SWAP8 DUP9 SWAP8 PUSH4 0xBADE066B PUSH1 0xE0 SHL DUP10 MSTORE PUSH1 0x4 DUP10 ADD MSTORE PUSH1 0x24 DUP9 ADD MSTORE PUSH1 0x80 PUSH1 0x44 DUP9 ADD MSTORE PUSH1 0x84 DUP8 ADD SWAP2 PUSH2 0x1B3E JUMP JUMPDEST DUP5 DUP2 SUB PUSH1 0x3 NOT ADD PUSH1 0x64 DUP7 ADD MSTORE SWAP2 PUSH2 0x1B62 JUMP JUMPDEST SUB DUP2 DUP4 ADDRESS GAS CALL DUP1 ISZERO PUSH2 0x164C JUMPI PUSH2 0x1637 JUMPI POP DUP1 RETURN JUMPDEST PUSH8 0xFFFFFFFFFFFFFFFF DUP2 GT PUSH2 0x64D JUMPI PUSH1 0x40 MSTORE DUP1 RETURN JUMPDEST PUSH1 0x40 MLOAD RETURNDATASIZE DUP5 DUP3 RETURNDATACOPY RETURNDATASIZE SWAP1 REVERT JUMPDEST DUP6 DUP1 REVERT JUMPDEST POP DUP1 PUSH1 0x3 NOT CALLDATASIZE ADD SLT PUSH2 0x1A7 JUMPI PUSH2 0x1675 PUSH1 0x2 DUP1 SLOAD EQ ISZERO PUSH2 0x1A1C JUMP JUMPDEST PUSH1 0x2 DUP1 SSTORE CALLVALUE ISZERO PUSH2 0x16CC JUMPI CALLER DUP2 MSTORE PUSH1 0x4 PUSH1 0x20 MSTORE PUSH1 0x40 DUP2 KECCAK256 PUSH2 0x1696 CALLVALUE DUP3 SLOAD PUSH2 0x1A59 JUMP JUMPDEST SWAP1 SSTORE PUSH1 0x40 MLOAD CALLVALUE DUP2 MSTORE PUSH32 0xA7BB2E28CC4698AAC06DB79CF9163BFCC20719286CF59FA7D492CEDA1B8EDC2 PUSH1 0x20 CALLER SWAP3 LOG2 PUSH1 0x1 PUSH1 0x2 SSTORE DUP1 RETURN JUMPDEST PUSH1 0x40 MLOAD PUSH3 0x461BCD PUSH1 0xE5 SHL DUP2 MSTORE PUSH1 0x20 PUSH1 0x4 DUP3 ADD MSTORE PUSH1 0x1C PUSH1 0x24 DUP3 ADD MSTORE PUSH32 0x4D757374206465706F736974206E6F6E2D7A65726F20616D6F756E7400000000 PUSH1 0x44 DUP3 ADD MSTORE PUSH1 0x64 SWAP1 REVERT JUMPDEST SWAP1 POP CALLVALUE PUSH2 0x70D JUMPI PUSH1 0x20 CALLDATASIZE PUSH1 0x3 NOT ADD SLT PUSH2 0x70D JUMPI PUSH1 0x4 CALLDATALOAD PUSH1 0x1 PUSH1 0x1 PUSH1 0xA0 SHL SUB DUP2 AND SWAP1 DUP2 SWAP1 SUB PUSH2 0x1A3 JUMPI DUP3 PUSH1 0x40 SWAP2 PUSH1 0x20 SWAP5 MSTORE PUSH1 0x5 DUP5 MSTORE KECCAK256 SLOAD DUP2 MSTORE RETURN JUMPDEST PUSH1 0x80 PUSH1 0x3 NOT DUP3 ADD SLT PUSH2 0x17D4 JUMPI PUSH1 0x4 CALLDATALOAD SWAP2 PUSH1 0x24 CALLDATALOAD SWAP2 PUSH1 0x44 CALLDATALOAD SWAP2 PUSH8 0xFFFFFFFFFFFFFFFF SWAP1 DUP2 DUP5 GT PUSH2 0x17D4 JUMPI DUP3 PUSH1 0x23 DUP6 ADD SLT ISZERO PUSH2 0x17D4 JUMPI DUP4 PUSH1 0x4 ADD CALLDATALOAD SWAP4 DUP3 DUP6 GT PUSH2 0x17D4 JUMPI DUP4 PUSH1 0x24 DUP7 PUSH1 0x5 SHL DUP4 ADD ADD GT PUSH2 0x17D4 JUMPI PUSH1 0x24 ADD SWAP4 SWAP3 PUSH1 0x64 CALLDATALOAD SWAP1 DUP4 DUP3 GT PUSH2 0x17D4 JUMPI DUP1 PUSH1 0x23 DUP4 ADD SLT ISZERO PUSH2 0x17D4 JUMPI DUP2 PUSH1 0x4 ADD CALLDATALOAD SWAP4 DUP5 GT PUSH2 0x17D4 JUMPI PUSH1 0x24 DUP5 DUP4 ADD ADD GT PUSH2 0x17D4 JUMPI PUSH1 0x24 ADD SWAP2 SWAP1 JUMP JUMPDEST PUSH1 0x0 DUP1 REVERT JUMPDEST PUSH1 0x3 SLOAD DUP2 LT ISZERO PUSH2 0x1814 JUMPI PUSH1 0x9 SWAP1 PUSH1 0x3 PUSH1 0x0 MSTORE MUL PUSH32 0xC2575A0E9E593C00F959F8C92F12DB2869C3395A3B0502D05E2516446F71F85B ADD SWAP1 PUSH1 0x0 SWAP1 JUMP JUMPDEST PUSH4 0x4E487B71 PUSH1 0xE0 SHL PUSH1 0x0 MSTORE PUSH1 0x32 PUSH1 0x4 MSTORE PUSH1 0x24 PUSH1 0x0 REVERT JUMPDEST SWAP1 PUSH1 0x1 DUP3 DUP2 SHR SWAP3 AND DUP1 ISZERO PUSH2 0x185A JUMPI JUMPDEST PUSH1 0x20 DUP4 LT EQ PUSH2 0x1844 JUMPI JUMP JUMPDEST PUSH4 0x4E487B71 PUSH1 0xE0 SHL PUSH1 0x0 MSTORE PUSH1 0x22 PUSH1 0x4 MSTORE PUSH1 0x24 PUSH1 0x0 REVERT JUMPDEST SWAP2 PUSH1 0x7F AND SWAP2 PUSH2 0x1839 JUMP JUMPDEST PUSH2 0x140 DUP2 ADD SWAP1 DUP2 LT PUSH8 0xFFFFFFFFFFFFFFFF DUP3 GT OR PUSH2 0x1881 JUMPI PUSH1 0x40 MSTORE JUMP JUMPDEST PUSH4 0x4E487B71 PUSH1 0xE0 SHL PUSH1 0x0 MSTORE PUSH1 0x41 PUSH1 0x4 MSTORE PUSH1 0x24 PUSH1 0x0 REVERT JUMPDEST SWAP1 PUSH1 0x1F DUP1 NOT SWAP2 ADD AND DUP2 ADD SWAP1 DUP2 LT PUSH8 0xFFFFFFFFFFFFFFFF DUP3 GT OR PUSH2 0x1881 JUMPI PUSH1 0x40 MSTORE JUMP JUMPDEST SWAP1 PUSH1 0x40 MLOAD SWAP2 DUP3 PUSH1 0x0 DUP3 SLOAD SWAP3 PUSH2 0x18CD DUP5 PUSH2 0x182A JUMP JUMPDEST SWAP1 DUP2 DUP5 MSTORE PUSH1 0x1 SWAP5 DUP6 DUP2 AND SWAP1 DUP2 PUSH1 0x0 EQ PUSH2 0x193C JUMPI POP PUSH1 0x1 EQ PUSH2 0x18F9 JUMPI JUMPDEST POP POP PUSH2 0x18F7 SWAP3 POP SUB DUP4 PUSH2 0x1897 JUMP JUMPDEST JUMP JUMPDEST SWAP1 SWAP4 SWAP2 POP PUSH1 0x0 MSTORE PUSH1 0x20 SWAP1 DUP2 PUSH1 0x0 KECCAK256 SWAP4 PUSH1 0x0 SWAP2 JUMPDEST DUP2 DUP4 LT PUSH2 0x1924 JUMPI POP POP PUSH2 0x18F7 SWAP4 POP DUP3 ADD ADD CODESIZE DUP1 PUSH2 0x18E9 JUMP JUMPDEST DUP6 SLOAD DUP9 DUP5 ADD DUP6 ADD MSTORE SWAP5 DUP6 ADD SWAP5 DUP8 SWAP5 POP SWAP2 DUP4 ADD SWAP2 PUSH2 0x190C JUMP JUMPDEST SWAP2 POP POP PUSH2 0x18F7 SWAP5 POP PUSH1 0x20 SWAP3 POP PUSH1 0xFF NOT AND DUP3 DUP5 ADD MSTORE ISZERO ISZERO PUSH1 0x5 SHL DUP3 ADD ADD CODESIZE DUP1 PUSH2 0x18E9 JUMP JUMPDEST SWAP1 PUSH1 0x2 DUP3 LT ISZERO PUSH2 0xC38 JUMPI MSTORE JUMP JUMPDEST SWAP1 PUSH1 0x6 DUP3 LT ISZERO PUSH2 0xC38 JUMPI MSTORE JUMP JUMPDEST SWAP2 SWAP1 DUP3 MLOAD SWAP3 DUP4 DUP3 MSTORE PUSH1 0x0 JUMPDEST DUP5 DUP2 LT PUSH2 0x19A5 JUMPI POP POP DUP3 PUSH1 0x0 PUSH1 0x20 DUP1 SWAP5 SWAP6 DUP5 ADD ADD MSTORE PUSH1 0x1F DUP1 NOT SWAP2 ADD AND ADD ADD SWAP1 JUMP JUMPDEST PUSH1 0x20 DUP2 DUP4 ADD DUP2 ADD MLOAD DUP5 DUP4 ADD DUP3 ADD MSTORE ADD PUSH2 0x1984 JUMP JUMPDEST PUSH8 0xFFFFFFFFFFFFFFFF DUP2 GT PUSH2 0x1881 JUMPI PUSH1 0x1F ADD PUSH1 0x1F NOT AND PUSH1 0x20 ADD SWAP1 JUMP JUMPDEST DUP2 PUSH1 0x1F DUP3 ADD SLT ISZERO PUSH2 0x17D4 JUMPI DUP1 CALLDATALOAD SWAP1 PUSH2 0x19EC DUP3 PUSH2 0x19B9 JUMP JUMPDEST SWAP3 PUSH2 0x19FA PUSH1 0x40 MLOAD SWAP5 DUP6 PUSH2 0x1897 JUMP JUMPDEST DUP3 DUP5 MSTORE PUSH1 0x20 DUP4 DUP4 ADD ADD GT PUSH2 0x17D4 JUMPI DUP2 PUSH1 0x0 SWAP3 PUSH1 0x20 DUP1 SWAP4 ADD DUP4 DUP7 ADD CALLDATACOPY DUP4 ADD ADD MSTORE SWAP1 JUMP JUMPDEST ISZERO PUSH2 0x1A23 JUMPI JUMP JUMPDEST PUSH1 0x40 MLOAD PUSH3 0x461BCD PUSH1 0xE5 SHL DUP2 MSTORE PUSH1 0x20 PUSH1 0x4 DUP3 ADD MSTORE PUSH1 0xE PUSH1 0x24 DUP3 ADD MSTORE PUSH14 0x1499595B9D1C985B9D0818D85B1B PUSH1 0x92 SHL PUSH1 0x44 DUP3 ADD MSTORE PUSH1 0x64 SWAP1 REVERT JUMPDEST SWAP2 SWAP1 DUP3 ADD DUP1 SWAP3 GT PUSH2 0x1A66 JUMPI JUMP JUMPDEST PUSH4 0x4E487B71 PUSH1 0xE0 SHL PUSH1 0x0 MSTORE PUSH1 0x11 PUSH1 0x4 MSTORE PUSH1 0x24 PUSH1 0x0 REVERT JUMPDEST SWAP2 SWAP1 DUP3 SUB SWAP2 DUP3 GT PUSH2 0x1A66 JUMPI JUMP JUMPDEST RETURNDATASIZE ISZERO PUSH2 0x1AB4 JUMPI RETURNDATASIZE SWAP1 PUSH2 0x1A9A DUP3 PUSH2 0x19B9 JUMP JUMPDEST SWAP2 PUSH2 0x1AA8 PUSH1 0x40 MLOAD SWAP4 DUP5 PUSH2 0x1897 JUMP JUMPDEST DUP3 MSTORE RETURNDATASIZE PUSH1 0x0 PUSH1 0x20 DUP5 ADD RETURNDATACOPY JUMP JUMPDEST PUSH1 0x60 SWAP1 JUMP JUMPDEST PUSH1 0x2 DUP3 LT ISZERO PUSH2 0xC38 JUMPI MSTORE JUMP JUMPDEST ISZERO PUSH2 0x1ACC JUMPI JUMP JUMPDEST PUSH1 0x40 MLOAD PUSH3 0x461BCD PUSH1 0xE5 SHL DUP2 MSTORE PUSH1 0x20 PUSH1 0x4 DUP3 ADD MSTORE PUSH1 0xE PUSH1 0x24 DUP3 ADD MSTORE PUSH14 0x125B9D985B1A59081A9BD8881251 PUSH1 0x92 SHL PUSH1 0x44 DUP3 ADD MSTORE PUSH1 0x64 SWAP1 REVERT JUMPDEST ISZERO PUSH2 0x1B09 JUMPI JUMP JUMPDEST PUSH1 0x40 MLOAD PUSH3 0x461BCD PUSH1 0xE5 SHL DUP2 MSTORE PUSH1 0x20 PUSH1 0x4 DUP3 ADD MSTORE PUSH1 0xD PUSH1 0x24 DUP3 ADD MSTORE PUSH13 0x1499599D5B990819985A5B1959 PUSH1 0x9A SHL PUSH1 0x44 DUP3 ADD MSTORE PUSH1 0x64 SWAP1 REVERT JUMPDEST DUP2 DUP4 MSTORE SWAP1 SWAP2 PUSH1 0x1 PUSH1 0x1 PUSH1 0xFB SHL SUB DUP4 GT PUSH2 0x17D4 JUMPI PUSH1 0x20 SWAP3 PUSH1 0x5 SHL DUP1 SWAP3 DUP5 DUP4 ADD CALLDATACOPY ADD ADD SWAP1 JUMP JUMPDEST SWAP1 DUP1 PUSH1 0x20 SWAP4 SWAP3 DUP2 DUP5 MSTORE DUP5 DUP5 ADD CALLDATACOPY PUSH1 0x0 DUP3 DUP3 ADD DUP5 ADD MSTORE PUSH1 0x1F ADD PUSH1 0x1F NOT AND ADD ADD SWAP1 JUMP JUMPDEST ISZERO PUSH2 0x1B8A JUMPI JUMP JUMPDEST PUSH1 0x40 MLOAD PUSH3 0x461BCD PUSH1 0xE5 SHL DUP2 MSTORE PUSH1 0x20 PUSH1 0x4 DUP3 ADD MSTORE PUSH1 0x9 PUSH1 0x24 DUP3 ADD MSTORE PUSH9 0x2737BA1037BBB732B9 PUSH1 0xB9 SHL PUSH1 0x44 DUP3 ADD MSTORE PUSH1 0x64 SWAP1 REVERT JUMPDEST PUSH1 0x2 DUP2 LT ISZERO PUSH2 0xC38 JUMPI PUSH2 0x1BCE JUMPI PUSH2 0xE10 SWAP1 JUMP JUMPDEST PUSH3 0x15180 SWAP1 JUMP JUMPDEST PUSH1 0x2 DUP2 ADD SLOAD SWAP1 PUSH1 0xFF DUP3 PUSH1 0x8 SHR AND PUSH1 0x6 DUP2 LT ISZERO PUSH2 0xC38 JUMPI PUSH1 0x1 SUB PUSH2 0x1C10 JUMPI PUSH1 0x8 PUSH2 0x1C03 PUSH1 0xFF PUSH2 0x1C0B SWAP5 AND PUSH2 0x1BBB JUMP JUMPDEST SWAP2 ADD SLOAD PUSH2 0x1A59 JUMP JUMPDEST TIMESTAMP GT SWAP1 JUMP JUMPDEST POP POP PUSH1 0x0 SWAP1 JUMP INVALID LOG2 PUSH5 0x6970667358 0x22 SLT KECCAK256 0x23 CALL EXTCODESIZE LOG4 0x21 0x2B 0xC6 MSTORE8 MULMOD 0xFC PUSH23 0x938ED7775BDD73AA86DF111A737CEB04AA9FF937986473 PUSH16 0x6C634300081400330000000000000000 "},"methodIdentifiers":{"INFERENCE_TIMEOUT()":"4e2b39ca","TRAINING_TIMEOUT()":"59abb656","cancelJob(uint256)":"1dffa3dc","claimJob(uint256)":"e3e4b9fb","createJob(uint8,string,string)":"ec3cb224","depositStake()":"0d2d76a2","expireJob(uint256)":"bc76136c","getJob(uint256)":"bf22c457","getJobCount()":"b02b4a2f","getTimeout(uint8)":"2792cf03","isJobExpired(uint256)":"dad788d9","jobs(uint256)":"180aedf3","owner()":"8da5cb5b","slashWorker(uint256)":"d7df1478","submitResult(uint256,bytes32,uint256[],bytes)":"bade066b","submitTrainingUpdate(uint256,bytes32,uint256[],bytes)":"16aad824","transferOwnership(address)":"f2fde38b","updateVerifier(address)":"97fc007c","verifier()":"2b7ac3f3","withdrawStake(uint256)":"25d5971f","workerReputation(address)":"08a101b8","workerStakes(address)":"b3212e69"}}}}}