{"src/ProductionVerifier.sol":{"ProductionVerifier":{"abi":[{"inputs":[],"stateMutability":"nonpayable","type":"constructor"},{"anonymous":false,"inputs":[{"indexed":true,"internalType":"address","name":"submitter","type":"address"},{"indexed":false,"internalType":"bytes32","name":"proofHash","type":"bytes32"},{"indexed":false,"internalType":"bool","name":"result","type":"bool"}],"name":"ProofVerified","type":"event"},{"anonymous":false,"inputs":[{"indexed":true,"internalType":"address","name":"submitter","type":"address"}],"name":"TrustedSubmitterAdded","type":"event"},{"anonymous":false,"inputs":[{"indexed":true,"internalType":"address","name":"submitter","type":"address"}],"name":"TrustedSubmitterRemoved","type":"event"},{"anonymous":false,"inputs":[{"indexed":false,"internalType":"uint256","name":"minInputs","type":"uint256"},{"indexed":false,"internalType":"uint256","name":"minProofLen","type":"uint256"}],"name":"VerificationConfigUpdated","type":"event"},{"inputs":[{"internalType":"address","name":"submitter","type":"address"}],"name":"addTrustedSubmitter","outputs":[],"stateMutability":"nonpayable","type":"function"},{"inputs":[],"name":"failedVerifications","outputs":[{"internalType":"uint256","name":"","type":"uint256"}],"stateMutability":"view","type":"function"},{"inputs":[],"name":"getStats","outputs":[{"internalType":"uint256","name":"total","type":"uint256"},{"internalType":"uint256","name":"successful","type":"uint256"},{"internalType":"uint256","name":"failed","type":"uint256"},{"internalType":"uint256","name":"successRate","type":"uint256"}],"stateMutability":"view","type":"function"},{"inputs":[{"internalType":"address","name":"submitter","type":"address"}],"name":"getSubmitterReputation","outputs":[{"internalType":"uint256","name":"","type":"uint256"}],"stateMutability":"view","type":"function"},{"inputs":[{"internalType":"bytes32","name":"proofHash","type":"bytes32"}],"name":"isProofUsed","outputs":[{"internalType":"bool","name":"","type":"bool"}],"stateMutability":"view","type":"function"},{"inputs":[],"name":"minProofLength","outputs":[{"internalType":"uint256","name":"","type":"uint256"}],"stateMutability":"view","type":"function"},{"inputs":[],"name":"minPublicInputs","outputs":[{"internalType":"uint256","name":"","type":"uint256"}],"stateMutability":"view","type":"function"},{"inputs":[],"name":"owner","outputs":[{"internalType":"address","name":"","type":"address"}],"stateMutability":"view","type":"function"},{"inputs":[{"internalType":"address","name":"submitter","type":"address"}],"name":"removeTrustedSubmitter","outputs":[],"stateMutability":"nonpayable","type":"function"},{"inputs":[{"internalType":"address","name":"","type":"address"}],"name":"submitterReputation","outputs":[{"internalType":"uint256","name":"","type":"uint256"}],"stateMutability":"view","type":"function"},{"inputs":[],"name":"successfulVerifications","outputs":[{"internalType":"uint256","name":"","type":"uint256"}],"stateMutability":"view","type":"function"},{"inputs":[],"name":"totalVerifications","outputs":[{"internalType":"uint256","name":"","type":"uint256"}],"stateMutability":"view","type":"function"},{"inputs":[{"internalType":"address","name":"newOwner","type":"address"}],"name":"transferOwnership","outputs":[],"stateMutability":"nonpayable","type":"function"},{"inputs":[{"internalType":"address","name":"","type":"address"}],"name":"trustedSubmitters","outputs":[{"internalType":"bool","name":"","type":"bool"}],"stateMutability":"view","type":"function"},{"inputs":[{"internalType":"uint256","name":"_minPublicInputs","type":"uint256"},{"internalType":"uint256","name":"_minProofLength","type":"uint256"}],"name":"updateVerificationConfig","outputs":[],"stateMutability":"nonpayable","type":"function"},{"inputs":[{"internalType":"bytes32","name":"","type":"bytes32"}],"name":"usedProofs","outputs":[{"internalType":"bool","name":"","type":"bool"}],"stateMutability":"view","type":"function"},{"inputs":[{"internalType":"uint256[]","name":"pubInputs","type":"uint256[]"},{"internalType":"bytes","name":"proof","type":"bytes"}],"name":"verify","outputs":[{"internalType":"bool","name":"","type":"bool"}],"stateMutability":"nonpayable","type":"function"},{"inputs":[{"internalType":"uint256[]","name":"pubInputs","type":"uint256[]"},{"internalType":"bytes","name":"proof","type":"bytes"}],"name":"verifyView","outputs":[{"internalType":"bool","name":"","type":"bool"}],"stateMutability":"view","type":"function"}],"evm":{"bytecode":{"linkReferences":{},"object":"6080806040523461003057600080546001600160a01b03191633178155600481905560055561090390816100368239f35b600080fdfe6080604081815260048036101561001557600080fd5b600092833560e01c9081630d7570e6146104bc575080631470b96314610459578063336754ef146103e85780633634e0a7146103c957806344d87e671461034b578063557bbf7f146102a35780638da5cb5b146103a1578063a0cefa0f14610384578063aa23e4981461034b578063ac90c1401461032c578063ae864daa1461030d578063bccceaec146102ee578063bd205a90146102cf578063c30a0f25146102a3578063c59d484714610213578063db1a4319146101e7578063f2fde38b1461015e5763fd97c1a2146100e957600080fd5b3461015a57602036600319011261015a57356001600160a01b0381811692918390036101565761011d908454163314610875565b81835260066020528220805460ff191690557fc7fef207ddc84c8f7730740a7f9846821f2f0c92f981449d2311d3a64fee60038280a280f35b8380fd5b8280fd5b50903461015a57602036600319011261015a576001600160a01b038235818116939192908490036101e35761019885549384163314610875565b83156101b05750506001600160a01b03191617815580f35b906020606492519162461bcd60e51b8352820152600d60248201526c24b73b30b634b21037bbb732b960991b6044820152fd5b8480fd5b50503461020f576020906102066101fd366104f9565b92919091610823565b90519015158152f35b5080fd5b5091903461020f578160031936011261020f576001546002546003549193909290841590816102975760648502918583046064148615171561028457610271575060809550849004925b815194855260208501528301526060820152f35b634e487b7160e01b815260128752602490fd5b634e487b7160e01b825260118852602482fd5b9050608095509261025d565b503461015a57602036600319011261015a578160209360ff923581526008855220541690519015158152f35b50503461020f576020906102066102e5366104f9565b929190916105f7565b50503461020f578160031936011261020f576020906003549051908152f35b50503461020f578160031936011261020f576020906002549051908152f35b50503461020f578160031936011261020f576020906001549051908152f35b503461015a57602036600319011261015a57356001600160a01b0381169081900361015a57828291602094526007845220549051908152f35b503461015a578260031936011261015a5760209250549051908152f35b50503461020f578160031936011261020f57905490516001600160a01b039091168152602090f35b50503461020f578160031936011261020f576020906005549051908152f35b503461015a57602036600319011261015a57356001600160a01b0381811692918390036101565761041d908454163314610875565b81835260066020528220805460ff191660011790557fbb91f68d1868d5b232449cc53e74bb2de5a41792f384470ee06cbbf701514af38280a280f35b50903461015a578060031936011261015a57817f4a9434453bf2d5cbc96d07bf59a0a747779dfec2c6d11cdc3c2f5ef70feb99ec92359081602435916104a960018060a01b038854163314610875565b558060055582519182526020820152a180f35b929190503461015657602036600319011261015657356001600160a01b038116908190036101565783526006602090815292205460ff1615158152f35b604060031982011261057a576004359167ffffffffffffffff9081841161057a578260238501121561057a5783600401359382851161057a578360248660051b8301011161057a5760240193926024359083821161057a578060238301121561057a57816004013593841161057a576024848301011161057a576024019190565b600080fd5b600019811461058e5760010190565b634e487b7160e01b600052601160045260246000fd5b91906001600160fb1b03811161057a5760051b809282370190565b90601f8019910116810190811067ffffffffffffffff8211176105e157604052565b634e487b7160e01b600052604160045260246000fd5b90939261060560015461057f565b60015560409081519560209482868901918161062284868a6105a4565b918237019761063f8160009a8b815203601f1981018352826105bf565b519020938488526008865260ff848920541661073d57906106609291610771565b9283156106c557816000805160206108ae8339815191529394959661068660025461057f565b60025585815260088352818120600160ff1982541617905533815260078352206106b0815461057f565b90555b8151938452841515908401523392a290565b6106d060035461057f565b60035533865260078152818620805480158015610704575b5050506000805160206108ae83398151915292939495506106b3565b6107295760001901905593945084936000805160206108ae83398151915238806106e8565b634e487b7160e01b88526011600452602488fd5b505050846000805160206108ae833981519152929361076060039796975461057f565b60035582519485528401523392a290565b9190600454811061081b576005928354831061081257600093338552600660205260ff60408620541680156107ff575b6107f557845b8381106107d157505050151590816107c8575b506107c55750600190565b90565b905015386107ba565b80821b830135600019146107ed576107e89061057f565b6107a7565b505050505090565b5050505050600190565b50600760205280604086205410156107a1565b50505050600090565b505050600090565b9291604051610854818560208201948161083e87898c6105a4565b918237016000815203601f1981018352826105bf565b519020600052600860205260ff6040600020541661081b576107c592610771565b1561087c57565b60405162461bcd60e51b81526020600482015260096024820152682737ba1037bbb732b960b91b6044820152606490fdfee8ad06fecfe3c13cc84998449b1933654518c4ba62322f6f5f079ca0e8e82233a26469706673582212202fcbbb68bc150621fa92794e03a883c70d5b3f1806789df1bbbade8d0c8d13d264736f6c63430008140033","opcodes":"PUSH1 0x80 DUP1 PUSH1 0x40 MSTORE CALLVALUE PUSH2 0x30 JUMPI PUSH1 0x0 DUP1 SLOAD PUSH1 0x1 PUSH1 0x1 PUSH1 0xA0 SHL SUB NOT AND CALLER OR DUP2 SSTORE PUSH1 0x4 DUP2 SWAP1 SSTORE PUSH1 0x5 SSTORE PUSH2 0x903 SWAP1 DUP2 PUSH2 0x36 DUP3 CODECOPY RETURN JUMPDEST PUSH1 0x0 DUP1 REVERT INVALID PUSH1 0x80 PUSH1 0x40 DUP2 DUP2 MSTORE PUSH1 0x4 DUP1 CALLDATASIZE LT ISZERO PUSH2 0x15 JUMPI PUSH1 0x0 DUP1 REVERT JUMPDEST PUSH1 0x0 SWAP3 DUP4 CALLDATALOAD PUSH1 0xE0 SHR SWAP1 DUP2 PUSH4 0xD7570E6 EQ PUSH2 0x4BC JUMPI POP DUP1 PUSH4 0x1470B963 EQ PUSH2 0x459 JUMPI DUP1 PUSH4 0x336754EF EQ PUSH2 0x3E8 JUMPI DUP1 PUSH4 0x3634E0A7 EQ PUSH2 0x3C9 JUMPI DUP1 PUSH4 0x44D87E67 EQ PUSH2 0x34B JUMPI DUP1 PUSH4 0x557BBF7F EQ PUSH2 0x2A3 JUMPI DUP1 PUSH4 0x8DA5CB5B EQ PUSH2 0x3A1 JUMPI DUP1 PUSH4 0xA0CEFA0F EQ PUSH2 0x384 JUMPI DUP1 PUSH4 0xAA23E498 EQ PUSH2 0x34B JUMPI DUP1 PUSH4 0xAC90C140 EQ PUSH2 0x32C JUMPI DUP1 PUSH4 0xAE864DAA EQ PUSH2 0x30D JUMPI DUP1 PUSH4 0xBCCCEAEC EQ PUSH2 0x2EE JUMPI DUP1 PUSH4 0xBD205A90 EQ PUSH2 0x2CF JUMPI DUP1 PUSH4 0xC30A0F25 EQ PUSH2 0x2A3 JUMPI DUP1 PUSH4 0xC59D4847 EQ PUSH2 0x213 JUMPI DUP1 PUSH4 0xDB1A4319 EQ PUSH2 0x1E7 JUMPI DUP1 PUSH4 0xF2FDE38B EQ PUSH2 0x15E JUMPI PUSH4 0xFD97C1A2 EQ PUSH2 0xE9 JUMPI PUSH1 0x0 DUP1 REVERT JUMPDEST CALLVALUE PUSH2 0x15A JUMPI PUSH1 0x20 CALLDATASIZE PUSH1 0x3 NOT ADD SLT PUSH2 0x15A JUMPI CALLDATALOAD PUSH1 0x1 PUSH1 0x1 PUSH1 0xA0 SHL SUB DUP2 DUP2 AND SWAP3 SWAP2 DUP4 SWAP1 SUB PUSH2 0x156 JUMPI PUSH2 0x11D SWAP1 DUP5 SLOAD AND CALLER EQ PUSH2 0x875 JUMP JUMPDEST DUP2 DUP4 MSTORE PUSH1 0x6 PUSH1 0x20 MSTORE DUP3 KECCAK256 DUP1 SLOAD PUSH1 0xFF NOT AND SWAP1 SSTORE PUSH32 0xC7FEF207DDC84C8F7730740A7F9846821F2F0C92F981449D2311D3A64FEE6003 DUP3 DUP1 LOG2 DUP1 RETURN JUMPDEST DUP4 DUP1 REVERT JUMPDEST DUP3 DUP1 REVERT JUMPDEST POP SWAP1 CALLVALUE PUSH2 0x15A JUMPI PUSH1 0x20 CALLDATASIZE PUSH1 0x3 NOT ADD SLT PUSH2 0x15A JUMPI PUSH1 0x1 PUSH1 0x1 PUSH1 0xA0 SHL SUB DUP3 CALLDATALOAD DUP2 DUP2 AND SWAP4 SWAP2 SWAP3 SWAP1 DUP5 SWAP1 SUB PUSH2 0x1E3 JUMPI PUSH2 0x198 DUP6 SLOAD SWAP4 DUP5 AND CALLER EQ PUSH2 0x875 JUMP JUMPDEST DUP4 ISZERO PUSH2 0x1B0 JUMPI POP POP PUSH1 0x1 PUSH1 0x1 PUSH1 0xA0 SHL SUB NOT AND OR DUP2 SSTORE DUP1 RETURN JUMPDEST SWAP1 PUSH1 0x20 PUSH1 0x64 SWAP3 MLOAD SWAP2 PUSH3 0x461BCD PUSH1 0xE5 SHL DUP4 MSTORE DUP3 ADD MSTORE PUSH1 0xD PUSH1 0x24 DUP3 ADD MSTORE PUSH13 0x24B73B30B634B21037BBB732B9 PUSH1 0x99 SHL PUSH1 0x44 DUP3 ADD MSTORE REVERT JUMPDEST DUP5 DUP1 REVERT JUMPDEST POP POP CALLVALUE PUSH2 0x20F JUMPI PUSH1 0x20 SWAP1 PUSH2 0x206 PUSH2 0x1FD CALLDATASIZE PUSH2 0x4F9 JUMP JUMPDEST SWAP3 SWAP2 SWAP1 SWAP2 PUSH2 0x823 JUMP JUMPDEST SWAP1 MLOAD SWAP1 ISZERO ISZERO DUP2 MSTORE RETURN JUMPDEST POP DUP1 REVERT JUMPDEST POP SWAP2 SWAP1 CALLVALUE PUSH2 0x20F JUMPI DUP2 PUSH1 0x3 NOT CALLDATASIZE ADD SLT PUSH2 0x20F JUMPI PUSH1 0x1 SLOAD PUSH1 0x2 SLOAD PUSH1 0x3 SLOAD SWAP2 SWAP4 SWAP1 SWAP3 SWAP1 DUP5 ISZERO SWAP1 DUP2 PUSH2 0x297 JUMPI PUSH1 0x64 DUP6 MUL SWAP2 DUP6 DUP4 DIV PUSH1 0x64 EQ DUP7 ISZERO OR ISZERO PUSH2 0x284 JUMPI PUSH2 0x271 JUMPI POP PUSH1 0x80 SWAP6 POP DUP5 SWAP1 DIV SWAP3 JUMPDEST DUP2 MLOAD SWAP5 DUP6 MSTORE PUSH1 0x20 DUP6 ADD MSTORE DUP4 ADD MSTORE PUSH1 0x60 DUP3 ADD MSTORE RETURN JUMPDEST PUSH4 0x4E487B71 PUSH1 0xE0 SHL DUP2 MSTORE PUSH1 0x12 DUP8 MSTORE PUSH1 0x24 SWAP1 REVERT JUMPDEST PUSH4 0x4E487B71 PUSH1 0xE0 SHL DUP3 MSTORE PUSH1 0x11 DUP9 MSTORE PUSH1 0x24 DUP3 REVERT JUMPDEST SWAP1 POP PUSH1 0x80 SWAP6 POP SWAP3 PUSH2 0x25D JUMP JUMPDEST POP CALLVALUE PUSH2 0x15A JUMPI PUSH1 0x20 CALLDATASIZE PUSH1 0x3 NOT ADD SLT PUSH2 0x15A JUMPI DUP2 PUSH1 0x20 SWAP4 PUSH1 0xFF SWAP3 CALLDATALOAD DUP2 MSTORE PUSH1 0x8 DUP6 MSTORE KECCAK256 SLOAD AND SWAP1 MLOAD SWAP1 ISZERO ISZERO DUP2 MSTORE RETURN JUMPDEST POP POP CALLVALUE PUSH2 0x20F JUMPI PUSH1 0x20 SWAP1 PUSH2 0x206 PUSH2 0x2E5 CALLDATASIZE PUSH2 0x4F9 JUMP JUMPDEST SWAP3 SWAP2 SWAP1 SWAP2 PUSH2 0x5F7 JUMP JUMPDEST POP POP CALLVALUE PUSH2 0x20F JUMPI DUP2 PUSH1 0x3 NOT CALLDATASIZE ADD SLT PUSH2 0x20F JUMPI PUSH1 0x20 SWAP1 PUSH1 0x3 SLOAD SWAP1 MLOAD SWAP1 DUP2 MSTORE RETURN JUMPDEST POP POP CALLVALUE PUSH2 0x20F JUMPI DUP2 PUSH1 0x3 NOT CALLDATASIZE ADD SLT PUSH2 0x20F JUMPI PUSH1 0x20 SWAP1 PUSH1 0x2 SLOAD SWAP1 MLOAD SWAP1 DUP2 MSTORE RETURN JUMPDEST POP POP CALLVALUE PUSH2 0x20F JUMPI DUP2 PUSH1 0x3 NOT CALLDATASIZE ADD SLT PUSH2 0x20F JUMPI PUSH1 0x20 SWAP1 PUSH1 0x1 SLOAD SWAP1 MLOAD SWAP1 DUP2 MSTORE RETURN JUMPDEST POP CALLVALUE PUSH2 0x15A JUMPI PUSH1 0x20 CALLDATASIZE PUSH1 0x3 NOT ADD SLT PUSH2 0x15A JUMPI CALLDATALOAD PUSH1 0x1 PUSH1 0x1 PUSH1 0xA0 SHL SUB DUP2 AND SWAP1 DUP2 SWAP1 SUB PUSH2 0x15A JUMPI DUP3 DUP3 SWAP2 PUSH1 0x20 SWAP5 MSTORE PUSH1 0x7 DUP5 MSTORE KECCAK256 SLOAD SWAP1 MLOAD SWAP1 DUP2 MSTORE RETURN JUMPDEST POP CALLVALUE PUSH2 0x15A JUMPI DUP3 PUSH1 0x3 NOT CALLDATASIZE ADD SLT PUSH2 0x15A JUMPI PUSH1 0x20 SWAP3 POP SLOAD SWAP1 MLOAD SWAP1 DUP2 MSTORE RETURN JUMPDEST POP POP CALLVALUE PUSH2 0x20F JUMPI DUP2 PUSH1 0x3 NOT CALLDATASIZE ADD SLT PUSH2 0x20F JUMPI SWAP1 SLOAD SWAP1 MLOAD PUSH1 0x1 PUSH1 0x1 PUSH1 0xA0 SHL SUB SWAP1 SWAP2 AND DUP2 MSTORE PUSH1 0x20 SWAP1 RETURN JUMPDEST POP POP CALLVALUE PUSH2 0x20F JUMPI DUP2 PUSH1 0x3 NOT CALLDATASIZE ADD SLT PUSH2 0x20F JUMPI PUSH1 0x20 SWAP1 PUSH1 0x5 SLOAD SWAP1 MLOAD SWAP1 DUP2 MSTORE RETURN JUMPDEST POP CALLVALUE PUSH2 0x15A JUMPI PUSH1 0x20 CALLDATASIZE PUSH1 0x3 NOT ADD SLT PUSH2 0x15A JUMPI CALLDATALOAD PUSH1 0x1 PUSH1 0x1 PUSH1 0xA0 SHL SUB DUP2 DUP2 AND SWAP3 SWAP2 DUP4 SWAP1 SUB PUSH2 0x156 JUMPI PUSH2 0x41D SWAP1 DUP5 SLOAD AND CALLER EQ PUSH2 0x875 JUMP JUMPDEST DUP2 DUP4 MSTORE PUSH1 0x6 PUSH1 0x20 MSTORE DUP3 KECCAK256 DUP1 SLOAD PUSH1 0xFF NOT AND PUSH1 0x1 OR SWAP1 SSTORE PUSH32 0xBB91F68D1868D5B232449CC53E74BB2DE5A41792F384470EE06CBBF701514AF3 DUP3 DUP1 LOG2 DUP1 RETURN JUMPDEST POP SWAP1 CALLVALUE PUSH2 0x15A JUMPI DUP1 PUSH1 0x3 NOT CALLDATASIZE ADD SLT PUSH2 0x15A JUMPI DUP2 PUSH32 0x4A9434453BF2D5CBC96D07BF59A0A747779DFEC2C6D11CDC3C2F5EF70FEB99EC SWAP3 CALLDATALOAD SWAP1 DUP2 PUSH1 0x24 CALLDATALOAD SWAP2 PUSH2 0x4A9 PUSH1 0x1 DUP1 PUSH1 0xA0 SHL SUB DUP9 SLOAD AND CALLER EQ PUSH2 0x875 JUMP JUMPDEST SSTORE DUP1 PUSH1 0x5 SSTORE DUP3 MLOAD SWAP2 DUP3 MSTORE PUSH1 0x20 DUP3 ADD MSTORE LOG1 DUP1 RETURN JUMPDEST SWAP3 SWAP2 SWAP1 POP CALLVALUE PUSH2 0x156 JUMPI PUSH1 0x20 CALLDATASIZE PUSH1 0x3 NOT ADD SLT PUSH2 0x156 JUMPI CALLDATALOAD PUSH1 0x1 PUSH1 0x1 PUSH1 0xA0 SHL SUB DUP2 AND SWAP1 DUP2 SWAP1 SUB PUSH2 0x156 JUMPI DUP4 MSTORE PUSH1 0x6 PUSH1 0x20 SWAP1 DUP2 MSTORE SWAP3 KECCAK256 SLOAD PUSH1 0xFF AND ISZERO ISZERO DUP2 MSTORE RETURN JUMPDEST PUSH1 0x40 PUSH1 0x3 NOT DUP3 ADD SLT PUSH2 0x57A JUMPI PUSH1 0x4 CALLDATALOAD SWAP2 PUSH8 0xFFFFFFFFFFFFFFFF SWAP1 DUP2 DUP5 GT PUSH2 0x57A JUMPI DUP3 PUSH1 0x23 DUP6 ADD SLT ISZERO PUSH2 0x57A JUMPI DUP4 PUSH1 0x4 ADD CALLDATALOAD SWAP4 DUP3 DUP6 GT PUSH2 0x57A JUMPI DUP4 PUSH1 0x24 DUP7 PUSH1 0x5 SHL DUP4 ADD ADD GT PUSH2 0x57A JUMPI PUSH1 0x24 ADD SWAP4 SWAP3 PUSH1 0x24 CALLDATALOAD SWAP1 DUP4 DUP3 GT PUSH2 0x57A JUMPI DUP1 PUSH1 0x23 DUP4 ADD SLT ISZERO PUSH2 0x57A JUMPI DUP2 PUSH1 0x4 ADD CALLDATALOAD SWAP4 DUP5 GT PUSH2 0x57A JUMPI PUSH1 0x24 DUP5 DUP4 ADD ADD GT PUSH2 0x57A JUMPI PUSH1 0x24 ADD SWAP2 SWAP1 JUMP JUMPDEST PUSH1 0x0 DUP1 REVERT JUMPDEST PUSH1 0x0 NOT DUP2 EQ PUSH2 0x58E JUMPI PUSH1 0x1 ADD SWAP1 JUMP JUMPDEST PUSH4 0x4E487B71 PUSH1 0xE0 SHL PUSH1 0x0 MSTORE PUSH1 0x11 PUSH1 0x4 MSTORE PUSH1 0x24 PUSH1 0x0 REVERT JUMPDEST SWAP2 SWAP1 PUSH1 0x1 PUSH1 0x1 PUSH1 0xFB SHL SUB DUP2 GT PUSH2 0x57A JUMPI PUSH1 0x5 SHL DUP1 SWAP3 DUP3 CALLDATACOPY ADD SWAP1 JUMP JUMPDEST SWAP1 PUSH1 0x1F DUP1 NOT SWAP2 ADD AND DUP2 ADD SWAP1 DUP2 LT PUSH8 0xFFFFFFFFFFFFFFFF DUP3 GT OR PUSH2 0x5E1 JUMPI PUSH1 0x40 MSTORE JUMP JUMPDEST PUSH4 0x4E487B71 PUSH1 0xE0 SHL PUSH1 0x0 MSTORE PUSH1 0x41 PUSH1 0x4 MSTORE PUSH1 0x24 PUSH1 0x0 REVERT JUMPDEST SWAP1 SWAP4 SWAP3 PUSH2 0x605 PUSH1 0x1 SLOAD PUSH2 0x57F JUMP JUMPDEST PUSH1 0x1 SSTORE PUSH1 0x40 SWAP1 DUP2 MLOAD SWAP6 PUSH1 0x20 SWAP5 DUP3 DUP7 DUP10 ADD SWAP2 DUP2 PUSH2 0x622 DUP5 DUP7 DUP11 PUSH2 0x5A4 JUMP JUMPDEST SWAP2 DUP3 CALLDATACOPY ADD SWAP8 PUSH2 0x63F DUP2 PUSH1 0x0 SWAP11 DUP12 DUP2 MSTORE SUB PUSH1 0x1F NOT DUP2 ADD DUP4 MSTORE DUP3 PUSH2 0x5BF JUMP JUMPDEST MLOAD SWAP1 KECCAK256 SWAP4 DUP5 DUP9 MSTORE PUSH1 0x8 DUP7 MSTORE PUSH1 0xFF DUP5 DUP10 KECCAK256 SLOAD AND PUSH2 0x73D JUMPI SWAP1 PUSH2 0x660 SWAP3 SWAP2 PUSH2 0x771 JUMP JUMPDEST SWAP3 DUP4 ISZERO PUSH2 0x6C5 JUMPI DUP2 PUSH1 0x0 DUP1 MLOAD PUSH1 0x20 PUSH2 0x8AE DUP4 CODECOPY DUP2 MLOAD SWAP2 MSTORE SWAP4 SWAP5 SWAP6 SWAP7 PUSH2 0x686 PUSH1 0x2 SLOAD PUSH2 0x57F JUMP JUMPDEST PUSH1 0x2 SSTORE DUP6 DUP2 MSTORE PUSH1 0x8 DUP4 MSTORE DUP2 DUP2 KECCAK256 PUSH1 0x1 PUSH1 0xFF NOT DUP3 SLOAD AND OR SWAP1 SSTORE CALLER DUP2 MSTORE PUSH1 0x7 DUP4 MSTORE KECCAK256 PUSH2 0x6B0 DUP2 SLOAD PUSH2 0x57F JUMP JUMPDEST SWAP1 SSTORE JUMPDEST DUP2 MLOAD SWAP4 DUP5 MSTORE DUP5 ISZERO ISZERO SWAP1 DUP5 ADD MSTORE CALLER SWAP3 LOG2 SWAP1 JUMP JUMPDEST PUSH2 0x6D0 PUSH1 0x3 SLOAD PUSH2 0x57F JUMP JUMPDEST PUSH1 0x3 SSTORE CALLER DUP7 MSTORE PUSH1 0x7 DUP2 MSTORE DUP2 DUP7 KECCAK256 DUP1 SLOAD DUP1 ISZERO DUP1 ISZERO PUSH2 0x704 JUMPI JUMPDEST POP POP POP PUSH1 0x0 DUP1 MLOAD PUSH1 0x20 PUSH2 0x8AE DUP4 CODECOPY DUP2 MLOAD SWAP2 MSTORE SWAP3 SWAP4 SWAP5 SWAP6 POP PUSH2 0x6B3 JUMP JUMPDEST PUSH2 0x729 JUMPI PUSH1 0x0 NOT ADD SWAP1 SSTORE SWAP4 SWAP5 POP DUP5 SWAP4 PUSH1 0x0 DUP1 MLOAD PUSH1 0x20 PUSH2 0x8AE DUP4 CODECOPY DUP2 MLOAD SWAP2 MSTORE CODESIZE DUP1 PUSH2 0x6E8 JUMP JUMPDEST PUSH4 0x4E487B71 PUSH1 0xE0 SHL DUP9 MSTORE PUSH1 0x11 PUSH1 0x4 MSTORE PUSH1 0x24 DUP9 REVERT JUMPDEST POP POP POP DUP5 PUSH1 0x0 DUP1 MLOAD PUSH1 0x20 PUSH2 0x8AE DUP4 CODECOPY DUP2 MLOAD SWAP2 MSTORE SWAP3 SWAP4 PUSH2 0x760 PUSH1 0x3 SWAP8 SWAP7 SWAP8 SLOAD PUSH2 0x57F JUMP JUMPDEST PUSH1 0x3 SSTORE DUP3 MLOAD SWAP5 DUP6 MSTORE DUP5 ADD MSTORE CALLER SWAP3 LOG2 SWAP1 JUMP JUMPDEST SWAP2 SWAP1 PUSH1 0x4 SLOAD DUP2 LT PUSH2 0x81B JUMPI PUSH1 0x5 SWAP3 DUP4 SLOAD DUP4 LT PUSH2 0x812 JUMPI PUSH1 0x0 SWAP4 CALLER DUP6 MSTORE PUSH1 0x6 PUSH1 0x20 MSTORE PUSH1 0xFF PUSH1 0x40 DUP7 KECCAK256 SLOAD AND DUP1 ISZERO PUSH2 0x7FF JUMPI JUMPDEST PUSH2 0x7F5 JUMPI DUP5 JUMPDEST DUP4 DUP2 LT PUSH2 0x7D1 JUMPI POP POP POP ISZERO ISZERO SWAP1 DUP2 PUSH2 0x7C8 JUMPI JUMPDEST POP PUSH2 0x7C5 JUMPI POP PUSH1 0x1 SWAP1 JUMP JUMPDEST SWAP1 JUMP JUMPDEST SWAP1 POP ISZERO CODESIZE PUSH2 0x7BA JUMP JUMPDEST DUP1 DUP3 SHL DUP4 ADD CALLDATALOAD PUSH1 0x0 NOT EQ PUSH2 0x7ED JUMPI PUSH2 0x7E8 SWAP1 PUSH2 0x57F JUMP JUMPDEST PUSH2 0x7A7 JUMP JUMPDEST POP POP POP POP POP SWAP1 JUMP JUMPDEST POP POP POP POP POP PUSH1 0x1 SWAP1 JUMP JUMPDEST POP PUSH1 0x7 PUSH1 0x20 MSTORE DUP1 PUSH1 0x40 DUP7 KECCAK256 SLOAD LT ISZERO PUSH2 0x7A1 JUMP JUMPDEST POP POP POP POP PUSH1 0x0 SWAP1 JUMP JUMPDEST POP POP POP PUSH1 0x0 SWAP1 JUMP JUMPDEST SWAP3 SWAP2 PUSH1 0x40 MLOAD PUSH2 0x854 DUP2 DUP6 PUSH1 0x20 DUP3 ADD SWAP5 DUP2 PUSH2 0x83E DUP8 DUP10 DUP13 PUSH2 0x5A4 JUMP JUMPDEST SWAP2 DUP3 CALLDATACOPY ADD PUSH1 0x0 DUP2 MSTORE SUB PUSH1 0x1F NOT DUP2 ADD DUP4 MSTORE DUP3 PUSH2 0x5BF JUMP JUMPDEST MLOAD SWAP1 KECCAK256 PUSH1 0x0 MSTORE PUSH1 0x8 PUSH1 0x20 MSTORE PUSH1 0xFF PUSH1 0x40 PUSH1 0x0 KECCAK256 SLOAD AND PUSH2 0x81B JUMPI PUSH2 0x7C5 SWAP3 PUSH2 0x771 JUMP JUMPDEST ISZERO PUSH2 0x87C JUMPI JUMP JUMPDEST PUSH1 0x40 MLOAD PUSH3 0x461BCD PUSH1 0xE5 SHL DUP2 MSTORE PUSH1 0x20 PUSH1 0x4 DUP3 ADD MSTORE PUSH1 0x9 PUSH1 0x24 DUP3 ADD MSTORE PUSH9 0x2737BA1037BBB732B9 PUSH1 0xB9 SHL PUSH1 0x44 DUP3 ADD MSTORE PUSH1 0x64 SWAP1 REVERT INVALID 0xE8 0xAD MOD INVALID 0xCF 0xE3 0xC1 EXTCODECOPY 0xC8 0x49 SWAP9 PREVRANDAO SWAP12 NOT CALLER PUSH6 0x4518C4BA6232 0x2F PUSH16 0x5F079CA0E8E82233A264697066735822 SLT KECCAK256 0x2F 0xCB 0xBB PUSH9 0xBC150621FA92794E03 0xA8 DUP4 0xC7 0xD JUMPDEST EXTCODEHASH XOR MOD PUSH25 0x9DF1BBBADE8D0C8D13D264736F6C6343000814003300000000 "},"methodIdentifiers":{"addTrustedSubmitter(address)":"336754ef","failedVerifications()":"bccceaec","getStats()":"c59d4847","getSubmitterReputation(address)":"44d87e67","isProofUsed(bytes32)":"557bbf7f","minProofLength()":"3634e0a7","minPublicInputs()":"a0cefa0f","owner()":"8da5cb5b","removeTrustedSubmitter(address)":"fd97c1a2","submitterReputation(address)":"aa23e498","successfulVerifications()":"ae864daa","totalVerifications()":"ac90c140","transferOwnership(address)":"f2fde38b","trustedSubmitters(address)":"0d7570e6","updateVerificationConfig(uint256,uint256)":"1470b963","usedProofs(bytes32)":"c30a0f25","verify(uint256[],bytes)":"bd205a90","verifyView(uint256[],bytes)":"db1a4319"}}}}}