{
  "_format": "hh-sol-artifact-1",
  "contractName": "ProductionVerifier",
  "sourceName": "src/ProductionVerifier.sol",
  "abi": [
    {
      "inputs": [],
      "stateMutability": "nonpayable",
      "type": "constructor"
    },
    {
      "anonymous": false,
      "inputs": [
        {
          "indexed": true,
          "internalType": "address",
          "name": "submitter",
          "type": "address"
        },
        {
          "indexed": false,
          "internalType": "bytes32",
          "name": "proofHash",
          "type": "bytes32"
        },
        {
          "indexed": false,
          "internalType": "bool",
          "name": "result",
          "type": "bool"
        }
      ],
      "name": "ProofVerified",
      "type": "event"
    },
    {
      "anonymous": false,
      "inputs": [
        {
          "indexed": true,
          "internalType": "address",
          "name": "submitter",
          "type": "address"
        }
      ],
      "name": "TrustedSubmitterAdded",
      "type": "event"
    },
    {
      "anonymous": false,
      "inputs": [
        {
          "indexed": true,
          "internalType": "address",
          "name": "submitter",
          "type": "address"
        }
      ],
      "name": "TrustedSubmitterRemoved",
      "type": "event"
    },
    {
      "anonymous": false,
      "inputs": [
        {
          "indexed": false,
          "internalType": "uint256",
          "name": "minInputs",
          "type": "uint256"
        },
        {
          "indexed": false,
          "internalType": "uint256",
          "name": "minProofLen",
          "type": "uint256"
        }
      ],
      "name": "VerificationConfigUpdated",
      "type": "event"
    },
    {
      "inputs": [
        {
          "internalType": "address",
          "name": "submitter",
          "type": "address"
        }
      ],
      "name": "addTrustedSubmitter",
      "outputs": [],
      "stateMutability": "nonpayable",
      "type": "function"
    },
    {
      "inputs": [],
      "name": "failedVerifications",
      "outputs": [
        {
          "internalType": "uint256",
          "name": "",
          "type": "uint256"
        }
      ],
      "stateMutability": "view",
      "type": "function"
    },
    {
      "inputs": [],
      "name": "getStats",
      "outputs": [
        {
          "internalType": "uint256",
          "name": "total",
          "type": "uint256"
        },
        {
          "internalType": "uint256",
          "name": "successful",
          "type": "uint256"
        },
        {
          "internalType": "uint256",
          "name": "failed",
          "type": "uint256"
        },
        {
          "internalType": "uint256",
          "name": "successRate",
          "type": "uint256"
        }
      ],
      "stateMutability": "view",
      "type": "function"
    },
    {
      "inputs": [
        {
          "internalType": "address",
          "name": "submitter",
          "type": "address"
        }
      ],
      "name": "getSubmitterReputation",
      "outputs": [
        {
          "internalType": "uint256",
          "name": "",
          "type": "uint256"
        }
      ],
      "stateMutability": "view",
      "type": "function"
    },
    {
      "inputs": [
        {
          "internalType": "bytes32",
          "name": "proofHash",
          "type": "bytes32"
        }
      ],
      "name": "isProofUsed",
      "outputs": [
        {
          "internalType": "bool",
          "name": "",
          "type": "bool"
        }
      ],
      "stateMutability": "view",
      "type": "function"
    },
    {
      "inputs": [],
      "name": "minProofLength",
      "outputs": [
        {
          "internalType": "uint256",
          "name": "",
          "type": "uint256"
        }
      ],
      "stateMutability": "view",
      "type": "function"
    },
    {
      "inputs": [],
      "name": "minPublicInputs",
      "outputs": [
        {
          "internalType": "uint256",
          "name": "",
          "type": "uint256"
        }
      ],
      "stateMutability": "view",
      "type": "function"
    },
    {
      "inputs": [],
      "name": "owner",
      "outputs": [
        {
          "internalType": "address",
          "name": "",
          "type": "address"
        }
      ],
      "stateMutability": "view",
      "type": "function"
    },
    {
      "inputs": [
        {
          "internalType": "address",
          "name": "submitter",
          "type": "address"
        }
      ],
      "name": "removeTrustedSubmitter",
      "outputs": [],
      "stateMutability": "nonpayable",
      "type": "function"
    },
    {
      "inputs": [
        {
          "internalType": "address",
          "name": "",
          "type": "address"
        }
      ],
      "name": "submitterReputation",
      "outputs": [
        {
          "internalType": "uint256",
          "name": "",
          "type": "uint256"
        }
      ],
      "stateMutability": "view",
      "type": "function"
    },
    {
      "inputs": [],
      "name": "successfulVerifications",
      "outputs": [
        {
          "internalType": "uint256",
          "name": "",
          "type": "uint256"
        }
      ],
      "stateMutability": "view",
      "type": "function"
    },
    {
      "inputs": [],
      "name": "totalVerifications",
      "outputs": [
        {
          "internalType": "uint256",
          "name": "",
          "type": "uint256"
        }
      ],
      "stateMutability": "view",
      "type": "function"
    },
    {
      "inputs": [
        {
          "internalType": "address",
          "name": "newOwner",
          "type": "address"
        }
      ],
      "name": "transferOwnership",
      "outputs": [],
      "stateMutability": "nonpayable",
      "type": "function"
    },
    {
      "inputs": [
        {
          "internalType": "address",
          "name": "",
          "type": "address"
        }
      ],
      "name": "trustedSubmitters",
      "outputs": [
        {
          "internalType": "bool",
          "name": "",
          "type": "bool"
        }
      ],
      "stateMutability": "view",
      "type": "function"
    },
    {
      "inputs": [
        {
          "internalType": "uint256",
          "name": "_minPublicInputs",
          "type": "uint256"
        },
        {
          "internalType": "uint256",
          "name": "_minProofLength",
          "type": "uint256"
        }
      ],
      "name": "updateVerificationConfig",
      "outputs": [],
      "stateMutability": "nonpayable",
      "type": "function"
    },
    {
      "inputs": [
        {
          "internalType": "bytes32",
          "name": "",
          "type": "bytes32"
        }
      ],
      "name": "usedProofs",
      "outputs": [
        {
          "internalType": "bool",
          "name": "",
          "type": "bool"
        }
      ],
      "stateMutability": "view",
      "type": "function"
    },
    {
      "inputs": [
        {
          "internalType": "uint256[]",
          "name": "pubInputs",
          "type": "uint256[]"
        },
        {
          "internalType": "bytes",
          "name": "proof",
          "type": "bytes"
        }
      ],
      "name": "verify",
      "outputs": [
        {
          "internalType": "bool",
          "name": "",
          "type": "bool"
        }
      ],
      "stateMutability": "nonpayable",
      "type": "function"
    },
    {
      "inputs": [
        {
          "internalType": "uint256[]",
          "name": "pubInputs",
          "type": "uint256[]"
        },
        {
          "internalType": "bytes",
          "name": "proof",
          "type": "bytes"
        }
      ],
      "name": "verifyView",
      "outputs": [
        {
          "internalType": "bool",
          "name": "",
          "type": "bool"
        }
      ],
      "stateMutability": "view",
      "type": "function"
    }
  ],
  "bytecode": "0x6080806040523461003057600080546001600160a01b03191633178155600481905560055561090390816100368239f35b600080fdfe6080604081815260048036101561001557600080fd5b600092833560e01c9081630d7570e6146104bc575080631470b96314610459578063336754ef146103e85780633634e0a7146103c957806344d87e671461034b578063557bbf7f146102a35780638da5cb5b146103a1578063a0cefa0f14610384578063aa23e4981461034b578063ac90c1401461032c578063ae864daa1461030d578063bccceaec146102ee578063bd205a90146102cf578063c30a0f25146102a3578063c59d484714610213578063db1a4319146101e7578063f2fde38b1461015e5763fd97c1a2146100e957600080fd5b3461015a57602036600319011261015a57356001600160a01b0381811692918390036101565761011d908454163314610875565b81835260066020528220805460ff191690557fc7fef207ddc84c8f7730740a7f9846821f2f0c92f981449d2311d3a64fee60038280a280f35b8380fd5b8280fd5b50903461015a57602036600319011261015a576001600160a01b038235818116939192908490036101e35761019885549384163314610875565b83156101b05750506001600160a01b03191617815580f35b906020606492519162461bcd60e51b8352820152600d60248201526c24b73b30b634b21037bbb732b960991b6044820152fd5b8480fd5b50503461020f576020906102066101fd366104f9565b92919091610823565b90519015158152f35b5080fd5b5091903461020f578160031936011261020f576001546002546003549193909290841590816102975760648502918583046064148615171561028457610271575060809550849004925b815194855260208501528301526060820152f35b634e487b7160e01b815260128752602490fd5b634e487b7160e01b825260118852602482fd5b9050608095509261025d565b503461015a57602036600319011261015a578160209360ff923581526008855220541690519015158152f35b50503461020f576020906102066102e5366104f9565b929190916105f7565b50503461020f578160031936011261020f576020906003549051908152f35b50503461020f578160031936011261020f576020906002549051908152f35b50503461020f578160031936011261020f576020906001549051908152f35b503461015a57602036600319011261015a57356001600160a01b0381169081900361015a57828291602094526007845220549051908152f35b503461015a578260031936011261015a5760209250549051908152f35b50503461020f578160031936011261020f57905490516001600160a01b039091168152602090f35b50503461020f578160031936011261020f576020906005549051908152f35b503461015a57602036600319011261015a57356001600160a01b0381811692918390036101565761041d908454163314610875565b81835260066020528220805460ff191660011790557fbb91f68d1868d5b232449cc53e74bb2de5a41792f384470ee06cbbf701514af38280a280f35b50903461015a578060031936011261015a57817f4a9434453bf2d5cbc96d07bf59a0a747779dfec2c6d11cdc3c2f5ef70feb99ec92359081602435916104a960018060a01b038854163314610875565b558060055582519182526020820152a180f35b929190503461015657602036600319011261015657356001600160a01b038116908190036101565783526006602090815292205460ff1615158152f35b604060031982011261057a576004359167ffffffffffffffff9081841161057a578260238501121561057a5783600401359382851161057a578360248660051b8301011161057a5760240193926024359083821161057a578060238301121561057a57816004013593841161057a576024848301011161057a576024019190565b600080fd5b600019811461058e5760010190565b634e487b7160e01b600052601160045260246000fd5b91906001600160fb1b03811161057a5760051b809282370190565b90601f8019910116810190811067ffffffffffffffff8211176105e157604052565b634e487b7160e01b600052604160045260246000fd5b90939261060560015461057f565b60015560409081519560209482868901918161062284868a6105a4565b918237019761063f8160009a8b815203601f1981018352826105bf565b519020938488526008865260ff848920541661073d57906106609291610771565b9283156106c557816000805160206108ae8339815191529394959661068660025461057f565b60025585815260088352818120600160ff1982541617905533815260078352206106b0815461057f565b90555b8151938452841515908401523392a290565b6106d060035461057f565b60035533865260078152818620805480158015610704575b5050506000805160206108ae83398151915292939495506106b3565b6107295760001901905593945084936000805160206108ae83398151915238806106e8565b634e487b7160e01b88526011600452602488fd5b505050846000805160206108ae833981519152929361076060039796975461057f565b60035582519485528401523392a290565b9190600454811061081b576005928354831061081257600093338552600660205260ff60408620541680156107ff575b6107f557845b8381106107d157505050151590816107c8575b506107c55750600190565b90565b905015386107ba565b80821b830135600019146107ed576107e89061057f565b6107a7565b505050505090565b5050505050600190565b50600760205280604086205410156107a1565b50505050600090565b505050600090565b9291604051610854818560208201948161083e87898c6105a4565b918237016000815203601f1981018352826105bf565b519020600052600860205260ff6040600020541661081b576107c592610771565b1561087c57565b60405162461bcd60e51b81526020600482015260096024820152682737ba1037bbb732b960b91b6044820152606490fdfee8ad06fecfe3c13cc84998449b1933654518c4ba62322f6f5f079ca0e8e82233a26469706673582212202fcbbb68bc150621fa92794e03a883c70d5b3f1806789df1bbbade8d0c8d13d264736f6c63430008140033",
  "linkReferences": {},
  "deployedLinkReferences": {}
}